BJT02749151716AA004744KON08AA004744000167088536310       BLN52P    PDUPI  520020230805
BJT02749151716AA004744KON08AA004744000166913547013       BLN52P    PDUIT  520320230805
BJT02749149887AA005538KON08AA005538000171015494448       BLN52P    PDUPI  520020230805
BJT02749149887AA005538KON08AA00553800017095065921        BLN52P    PDUIT  520320230805
BJT02749149878AA005750KON08AA005750000167243936774       BLN52P    PDUPI  520020230805
BJT02749149878AA005750KON08AA005750000167117313220       BLN52P    PDUIT  520320230805
BJT02749149587AA005753KON08AA005753000172651259569       BLN52P    PDUPI  520020230805
BJT02749149587AA005753KON08AA005753000172520198757       BLN52P    PDUIT  520320230805
BJT02749149435AA005756KON08AA005756000167457117806       BLN52P    PDUPI  520020230805
BJT02749149435AA005756KON08AA005756000167322507186       BLN52P    PDUIT  520320230805
BJT02749151207AA005870KON08AA005870000171232073676       BLN52P    PDUPI  520020230805
BJT02749151207AA005870KON08AA005870000171126108562       BLN52P    PDUIT  520320230805
BJT02749148430AA006006KON08AA006006000172869833818       BLN52P    PDUPI  520020230805
BJT02749148430AA006006KON08AA006006000172732249505       BLN52P    PDUIT  520320230805
BJT02749149883AA006163KON08AA006163000172452778195       BLN52P    PDUPI  520020230805
BJT02749149883AA006163KON08AA006163000172326114661       BLN52P    PDUIT  520320230805
BJT02749149855AA006346KON08AA006346000167663090858       BLN52P    PDUPI  520020230805
BJT02749149855AA006346KON08AA006346000167535525213       BLN52P    PDUIT  520320230805
BJT02749152138AA006406KON08AA006406000173043510935       BLN52P    PDUPI  520020230805
BJT02749152138AA006406KON08AA006406000172925520314       BLN52P    PDUIT  520320230805
BJT02749151562AA006411KON08AA006411000167861651292       BLN52P    PDUPI  520020230805
BJT02749151562AA006411KON08AA00641100016776772081        BLN52P    PDUIT  520320230805
BJT02749152407AA006488KON08AA006488000168042867916       BLN52P    PYSPI  520020230805
BJT02749152407AA006488KON08AA006488000167926163333       BLN52P    PYSIT  520320230805
BJT02749152007AA006493KON08AA006493000168236743928       BLN52P    PDUPI  520020230805
BJT02749152007AA006493KON08AA006493000168122425714       BLN52P    PDUIT  520320230805
BJT02749148985AA006495KON08AA006495000173219033889       BLN52P    PDUPI  520020230805
BJT02749148985AA006495KON08AA006495000173131815569       BLN52P    PDUIT  520320230805
BJT02749148933AA006709KON08AA006709000171450365677       BLN52P    PDUPI  520020230805
BJT02749148933AA006709KON08AA006709000171334444144       BLN52P    PDUIT  520320230805
BJT02749150318AA006737KON01AA0067370001668168571429      BLN52P    PYSPI  520020230805
BJT02749150318AA006737KON01AA006737000166759000000       BLN52P    PYSIT  520320230805
BJT02749151424AA006738KON08AA006738000171657699252       BLN52P    PDUPI  520020230805
BJT02749151424AA006738KON08AA006738000171540916819       BLN52P    PDUIT  520320230805
BJT02749150147AA006817KON08AA006817000168433603873       BLN52P    PDUPI  520020230805
BJT02749150147AA006817KON08AA006817000168325565769       BLN52P    PDUIT  520320230805
BJT02749150240AA006850KON08AA006850000168660710416       BLN52P    PDUPI  520020230805
BJT02749150240AA006850KON08AA00685000016852773153        BLN52P    PDUIT  520320230805
BJT02749152581AA006931KON08AA0069310001688117858556      BLN52P    PYSPI  520020230805
BJT02749152581AA006931KON08AA00693100016879108581        BLN52P    PYSIT  520320230805
BJT02749152582AA006932KON08AA006932000173488538163       BLN52P    PDUPI  520020230805
BJT02749152582AA006932KON08AA006932000173325500792       BLN52P    PDUIT  520320230805
BJT02749149248AA007474KON08AA007474000169080043237       BLN52P    PDUPI  520020230805
BJT02749149248AA007474KON08AA007474000168921530473       BLN52P    PDUIT  520320230805
BJT02749148896AA007475KON08AA007475000169226014052       BLN52P    PDUPI  520020230805
BJT02749148896AA007475KON08AA00747500016916997404        BLN52P    PDUIT  520320230805
BJT02749150227AA007476KON08AA0074760001694100054045      BLN52P    PYSPI  520020230805
BJT02749150227AA007476KON08AA007476000169326913092       BLN52P    PYSIT  520320230805
BJT02749151835AA007638KON08AA007638000171834786068       BLN52P    PDUPI  520020230805
BJT02749151835AA007638KON08AA007638000171744106788       BLN52P    PDUIT  520320230805
BJT02749151384AA007640KON08AA007640000169657410030       BLN52P    PDUPI  520020230805
BJT02749151384AA007640KON08AA007640000169518770252       BLN52P    PDUIT  520320230805
BJT02749151192AA007764KON08AA0077640001722103957840      BLN52P    PDUPI  520020230805
BJT02749151192AA007764KON08AA0077640001721142582336      BLN52P    PDUIT  520320230805
BJT02749152441AA007765KON08AA007765000172091503646       BLN52P    PDUPI  520020230805
BJT02749152441AA007765KON08AA007765000171935463491       BLN52P    PDUIT  520320230805
BJT02749151641AA007913KON08AA007913000169868124434       BLN52P    PDUPI  520020230805
BJT02749151641AA007913KON08AA00791300016974180357        BLN52P    PDUIT  520320230805
BJT02749151617AA008018KON08AA008018000170048017027       BLN52P    PYSPI  520020230805
BJT02749151617AA008018KON08AA008018000169928163255       BLN52P    PYSIT  520320230805
BJT02749151450AA008019KON08AA008019000170280028378       BLN52P    PDUPI  520020230805
BJT02749151450AA008019KON08AA008019000170146938759       BLN52P    PDUIT  520320230805
BJT02749148893AA008073KON08AA008073000170423653708       BLN52P    PYSPI  520020230805
BJT02749148893AA008073KON08AA008073000170314436433       BLN52P    PYSIT  520320230805
BJT02749153291AA008130KON08AA008130000173615536097       BLN52P    PDUPI  520020230805
BJT02749153291AA008130KON08AA00813000017359857330        BLN52P    PDUIT  520320230805
BJT02749152607AA008389KON08AA008389000170677444160       BLN52P    PDUPI  520020230805
BJT02749152607AA008389KON08AA008389000170540055838       BLN52P    PDUIT  520320230805
BJT02749153783AA008999KMK15AA008999000165161460059       BLN52P    PYSPI  520020230805
BJT02749153783AA008999KMK15AA008999000165031448899       BLN52P    PYSIT  520320230805
BJT02749153863AA009032KMK15AA0090320001661162375651      BLN52P    PDUPI  520020230805
BJT02749153863AA009032KMK15AA0090320001660141927972      BLN52P    PDUIT  520320230805
BJT02749149884AA009088KON08AA0090880001708279338600      BLN52P    PDUPI  520020230805
BJT02749149884AA009088KON08AA009088000170770976261       BLN52P    PDUIT  520320230805
BJT02749152810AA07276CKMK15AA07276C000164912334890       BLN52P    PDUPI  520020230805
BJT02749152810AA07276CKMK15AA07276C000164824237754       BLN52P    PDUIT  520320230805
BJT02749152819AA07286CKMK15AA07286C0001647105329595      BLN52P    PDUPI  520020230805
BJT02749152819AA07286CKMK15AA07286C00016461667719        BLN52P    PDUIT  520320230805
BJT02749153163AA107912KMK15AA107912000166386964749       BLN52P    PDUPI  520020230805
BJT02749153163AA107912KMK15AA10791200016625944209        BLN52P    PDUIT  520320230805
BJT02749153470AA108388KM36AAA108388000166627777750       BLN52P    PDUIT  520320230805
BJT02749153782AA108997KMK15AA108997000165761460059       BLN52P    PDUPI  520020230805
BJT02749153782AA108997KMK15AA108997000165631448899       BLN52P    PDUIT  520320230805
BJT02749151806AA108998KMK40AA1089980001665833333333      BLN52P    PDUPI  520020230805
BJT02749151806AA108998KMK40AA108998000166425000000       BLN52P    PDUIT  520320230805
BJT02749153869AA109038KMK15AA1090380001655112661385      BLN52P    PDUPI  520020230805
BJT02749153869AA109038KMK15AA1090380001654245662706      BLN52P    PDUIT  520320230805
BJT02749153917AA109089KMK15AA1090890001653118922985      BLN52P    PYSPI  520020230805
BJT02749153917AA109089KMK15AA109089000165266894932       BLN52P    PYSIT  520320230805
BJT02749153862AA209031KMK15AA2090310001659120905035      BLN52P    PDUPI  520020230805
BJT02749153862AA209031KMK15AA209031000165864912882       BLN52P    PDUIT  520320230805
BJT02828006044AB005567KON08AB005567000179948872715       BLN52P    PYSPI  520020230805
BJT02828006044AB005567KON08AB005567000179841250769       BLN52P    PYSIT  520320230805
BJT02828012000AB006307KMK15AB006307000173868847071       BLN52P    PYSPI  520020230805
BJT02828012000AB006307KMK15AB00630700017374464969        BLN52P    PYSIT  520320230805
BJT02828008674AB006440KM36BAB006440000178139999990       BLN52P    PDUIT  520320230805
BJT02828011183AB006653KMK15AB006653000174057921315       BLN52P    PYSPI  520020230805
BJT02828011183AB006653KMK15AB006653000173915390725       BLN52P    PYSIT  520320230805
BJT02828011239AB006685KMK15AB006685060301I18057110       ELNB45P2  PDYIT      20230805
BJT02828010456AB006742KMK45AB0067420001765110613545      BLN52P    PDUPI  520020230805
BJT02828010456AB006742KMK45AB006742000176433996037       BLN52P    PDUIT  520320230805
BJT02828011457AB006924KMK15AB006924000174625142374       BLN52P    PDUPI  520020230805
BJT02828011457AB006924KMK15AB006924000174511513646       BLN52P    PDUIT  520320230805
BJT02828005218AB006981KM36BAB0069810001785249999990      BLN52P    PDUIT  520320230805
BJT02828009533AB006982KM36BAB006982000178615000000       BLN52P    PDUIT  520320230805
BJT02828011610AB007007KMP01AB007007000176758333333       BLN52P    PYSPI  520020230805
BJT02828011610AB007007KMP01AB00700700017661750000        BLN52P    PYSIT  520320230805
BJT02828004088AB007063KM36BAB007063000178844357610       BLN52P    PYSIT  520320230805
BJT02828005734AB007102KM36BAB007102000178931684020       BLN52P    PYSIT  520320230805
BJT02828011826AB007256KMP02AB007256000177783333333       BLN52P    PYSPI  520020230805
BJT02828011826AB007256KMP02AB00725600017767500000        BLN52P    PYSIT  520320230805
BJT02828010686AB007257KMK41AB007257000176025000000       BLN52P    PYSIT  520320230805
BJT02828011825AB007258KMP02AB0072580001773138888889      BLN52P    PYSPI  520020230805
BJT02828011825AB007258KMP02AB007258000177212500000       BLN52P    PYSIT  520320230805
BJT02828011827AB007259KPM03AB007259000180412500000       BLN52P    PYSIT  520320230805
BJT02828008974AB007278KMK41AB007278000176110000000       BLN52P    PYSIT  520320230805
BJT02828011859AB007279KPM03AB007279000180512500000       BLN52P    PYSIT  520320230805
BJT02828009596AB007319KM36BAB007319000179530416640       BLN52P    PYSIT  520320230805
BJT02828010118AB06139CKM36BAB06139C000178052500000       BLN52P    PDUIT  520320230805
BJT02828010514AB102447KM36BAB1024470001783500000000      BLN52P    PDUPI  520020230805
BJT02828010514AB102447KM36BAB102447000178222500000       BLN52P    PDUIT  520320230805
BJT02828010525AB102485KM36BAB102485000178461961900       BLN52P    PYSIT  520320230805
BJT02828011242AB102544KMK15AB1025440001744288891854      BLN52P    PDUPI  520020230805
BJT02828011242AB102544KMK15AB1025440001743159609919      BLN52P    PDUIT  520320230805
BJT02828011611AB103215KM01EAB103215000177850000000       BLN52P    PYSIT  520320230805
BJT02828010559AB103276KM36BAB103276000179024586784       BLN52P    PYSIT  520320230805
BJT02828011824AB103341KMK15AB103341000175288182370       BLN52P    PDUPI  520020230805
BJT02828011824AB103341KMK15AB103341000175156929356       BLN52P    PDUIT  520320230805
BJT02828011822AB103342KPM03AB10334200018027500000        BLN52P    PYSIT  520320230805
BJT02828011823AB103343KPM03AB103343000180112500000       BLN52P    PYSIT  520320230805
BJT02828005636AB103344KMP02AB1033440001771138888889      BLN52P    PYSPI  520020230805
BJT02828005636AB103344KMP02AB103344000177012500000       BLN52P    PYSIT  520320230805
BJT02828011473AB103345KM36BAB103345000179376041660       BLN52P    PYSIT  520320230805
BJT02828005259AB103346KMP02AB1033460001775208333333      BLN52P    PYSPI  520020230805
BJT02828005259AB103346KMP02AB103346000177412500000       BLN52P    PYSIT  520320230805
BJT02828011858AB103367KPM04AB10336700018062500000        BLN52P    PYSIT  520320230805
BJT02828009564AB103368KMK36AB103368000175798854140       BLN52P    PYSIT  520320230805
BJT02828008531AB103394KM36BAB103394000179491249980       BLN52P    PYSIT  520320230805
BJT02828001188AB200256KON08AB200256 26216187256318       BLN52P    PDYPI  520020230805
BJT02828011067AB202265KMK15AB2022650001748136080267      BLN52P    PDUPI  520020230805
BJT02828011067AB202265KMK15AB20226500017472154604        BLN52P    PDUIT  520320230805
BJT02828011694AB202436KMK15AB202436000175057666993       BLN52P    PDUPI  520020230805
BJT02828011694AB202436KMK15AB202436000174933027836       BLN52P    PDUIT  520320230805
BJT02828011819AB202540KMP02AB202540000176955555556       BLN52P    PYSPI  520020230805
BJT02828011819AB202540KMP02AB20254000017685000000        BLN52P    PYSIT  520320230805
BJT02828004066AB202541KMK15AB2025410001754149597563      BLN52P    PYSPI  520020230805
BJT02828004066AB202541KMK15AB2025410001753145460405      BLN52P    PYSIT  520320230805
BJT02828011821AB202542KPM03AB20254200018007500000        BLN52P    PYSIT  520320230805
BJT02828011820AB202543KPM03AB202543000180312500000       BLN52P    PYSIT  520320230805
BJT02828010619AB202544KM01EAB202544000177936666667       BLN52P    PYSIT  520320230805
BJT02828009170AB202579KMK41AB202579000176225000000       BLN52P    PYSIT  520320230805
BJT02828009239AB202604KMK42AB202604000176325000000       BLN52P    PYSIT  520320230805
BJT02828000410AB300119KON08AB300119000179748498320       BLN52P    PDUPI  520020230805
BJT02828000410AB300119KON08AB300119000179611584003       BLN52P    PDUIT  520320230805
BJT02828000606AB301882KMK15AB301882000174242763891       BLN52P    PYSPI  520020230805
BJT02828000606AB301882KMK15AB301882000174112220139       BLN52P    PYSIT  520320230805
BJT02828011984AB302016KMK41AB302016000175812500000       BLN52P    PYSIT  520320230805
BJT02828003098AB302109KMK41AB302109000175910000000       BLN52P    PYSIT  520320230805
BJT02828002669AB302131KM36BAB302131000178776041660       BLN52P    PYSIT  520320230805
BJT02828011692AB302185KM36BAB302185000179128642336       BLN52P    PDUIT  520320230805
BJT02828011693AB302186KM36BAB302186000179253229150       BLN52P    PDUIT  520320230805
BJT02828012007AB302247KMK15AB3022470001756176364740      BLN52P    PYSPI  520020230805
BJT02828012007AB302247KMK15AB3022470001755113858712      BLN52P    PYSIT  520320230805
BJT02929001801AC006249KON08AC006249000182833647989       BLN52P    PDUPI  520020230805
BJT02929001801AC006249KON08AC006249000182715893911       BLN52P    PDUIT  520320230805
BJT02929001217AC006549KON08AC006549000183453705953       BLN52P    PDUPI  520020230805
BJT02929001217AC006549KON08AC00654900018335453747        BLN52P    PDUIT  520320230805
BJT02929000069AC006609KON08AC006609000183059669958       BLN52P    PYSPI  520020230805
BJT02929000069AC006609KON08AC006609000182921382642       BLN52P    PYSIT  520320230805
BJT02929000905AC007556KON08AC007556000183246285078       BLN52P    PDUPI  520020230805
BJT02929000905AC007556KON08AC00755600018317821622        BLN52P    PDUIT  520320230805
BJT02929001431AC007836KON08AC007836000183642439368       BLN52P    PDUPI  520020230805
BJT02929001431AC007836KON08AC007836000183511667332       BLN52P    PDUIT  520320230805
BJT02929002445AC008042KON12AC008042000183883333367       BLN52P    PYSPI  520020230805
BJT02929002445AC008042KON12AC008042000183783333333       BLN52P    PYSIT  520320230805
BJT02929004918AC008573KMK15AC0085730001810129308099      BLN52P    PDUPI  520020230805
BJT02929004918AC008573KMK15AC008573000180917316001       BLN52P    PDUIT  520320230805
BJT02929004813AC008688KMK42AC008688000181117500000       BLN52P    PYSIT  520320230805
BJT02929004026AC008730KMK42AC008730000181222500000       BLN52P    PYSIT  520320230805
BJT02929004825AC008733KMK42AC008733000181322500000       BLN52P    PYSIT  520320230805
BJT02929004641AC008828KMK42AC00882800018143500000        BLN52P    PYSIT  520320230805
BJT02929005226AC008984KM36AAC0089840001824166666700      BLN52P    PYSPI  520020230805
BJT02929005226AC008984KM36AAC008984000182318472200       BLN52P    PYSIT  520320230805
BJT02929005227AC008985KMK15AC008985000180827042376       BLN52P    PDUPI  520020230805
BJT02929005227AC008985KMK15AC008985000180713837524       BLN52P    PDUIT  520320230805
BJT02929004295AC008986KM36AAC0089860001826222222200      BLN52P    PDUPI  520020230805
BJT02929004295AC008986KM36AAC008986000182524629610       BLN52P    PDUIT  520320230805
BJT02929005256AC009015KM01EAC009015000182229166700       BLN52P    PYSIT  520320230805
BJT02929005257AC009016KMK43AC009016000181662500000       BLN52P    PYSPI  520020230805
BJT02929005257AC009016KMK43AC009016000181512500000       BLN52P    PYSIT  520320230805
BJT02929005288AC009056KMP01AC009056000181841666700       BLN52P    PDUPI  520020230805
BJT02929005288AC009056KMP01AC00905600018171250000        BLN52P    PYSIT  520320230805
BJT02929004976AC009057KM01AAC009057000182125000000       BLN52P    PYSIT  520320230805
BJT02929004493AC009339KPM03AC00933900018398750000        BLN52P    PYSIT  520320230805
BJT02929005782AC009374KPM03AC00937400018402500000        BLN52P    PYSIT  520320230805
BJT03030000892AD008118KON08AD008118000189243271458       BLN52P    PYSPI  520020230805
BJT03030000892AD008118KON08AD008118000189123228542       BLN52P    PYSIT  520320230805
BJT03030000085AD008227KON08AD008227000191660514550       BLN52P    PDUPI  520020230805
BJT03030000085AD008227KON08AD008227000191517015450       BLN52P    PDUIT  520320230805
BJT03030002133AD010534KON08AD010534000189446152422       BLN52P    PDUPI  520020230805
BJT03030002133AD010534KON08AD010534000189332737578       BLN52P    PDUIT  520320230805
BJT03030002017AD010535KON08AD010535000189651454208       BLN52P    PYSPI  520020230805
BJT03030002017AD010535KON08AD010535000189522105792       BLN52P    PYSIT  520320230805
BJT03030001430AD010538KON08AD010538000189857708851       BLN52P    PDUPI  520020230805
BJT03030001430AD010538KON08AD010538000189740911149       BLN52P    PDUIT  520320230805
BJT03030000709AD011198KON08AD011198000190030732936       BLN52P    PDUPI  520020230805
BJT03030000709AD011198KON08AD011198000189928437064       BLN52P    PDUIT  520320230805
BJT03030001594AD011294KMK15AD0112940001858228319762      BLN52P    PDUPI  520020230805
BJT03030001594AD011294KMK15AD011294000185736620238       BLN52P    PDUIT  520320230805
BJT03030003226AD011852KON08AD011852000191230015942       BLN52P    PDUPI  520020230805
BJT03030003226AD011852KON08AD01185200019118074058        BLN52P    PDUIT  520320230805
BJT03030004843AD011936KON08AD011936000190268173861       BLN52P    PDUPI  520020230805
BJT03030004843AD011936KON08AD01193600019015266139        BLN52P    PDUIT  520320230805
BJT03030001428AD012143KMK15AD0121430001846105023018      BLN52P    PDUPI  520020230805
BJT03030001428AD012143KMK15AD012143000184598132112       BLN52P    PDUIT  520320230805
BJT03030004905AD012145KMK39AD0121450001864105207500      BLN52P    PYSPI  520020230805
BJT03030004905AD012145KMK39AD012145000186312624900       BLN52P    PYSIT  520320230805
BJT03030004309AD012228KON08AD0122280001914130373503      BLN52P    PDUPI  520020230805
BJT03030004309AD012228KON08AD012228000191316496497       BLN52P    PDUIT  520320230805
BJT03030000481AD012230KON08AD012230000190494274537       BLN52P    PDUPI  520020230805
BJT03030000481AD012230KON08AD012230000190332695463       BLN52P    PDUIT  520320230805
BJT03030001367AD012232KMK15AD0122320001860378928967      BLN52P    PDUPI  520020230805
BJT03030001367AD012232KMK15AD0122320001859139881033      BLN52P    PDUIT  520320230805
BJT03030005014AD012594KON08AD012594000190614089211       BLN52P    PDUPI  520020230805
BJT03030005014AD012594KON08AD01259400019053530789        BLN52P    PDUIT  520320230805
BJT03030004514AD01278CKIN25AD01278C0001842237415775      BLN52P    PDUPI  520020230805
BJT03030004514AD01278CKIN25AD01278C000184185469679       BLN52P    PDUIT  520320230805
BJT03030003606AD01279CKIN25AD01279C0001844184612386      BLN52P    PDUPI  520020230805
BJT03030003606AD01279CKIN25AD01279C000184347076158       BLN52P    PDUIT  520320230805
BJT03030005089AD012817KMK45AD012817000188297727163       BLN52P    PDUPI  520020230805
BJT03030005089AD012817KMK45AD012817000188110732837       BLN52P    PDUIT  520320230805
BJT03030004694AD012818KON08AD012818000190810687465       BLN52P    PDUPI  520020230805
BJT03030004694AD012818KON08AD012818000190730752535       BLN52P    PDUIT  520320230805
BJT03030006010AD012877KON08AD012877000191048141460       BLN52P    PDUPI  520020230805
BJT03030006010AD012877KON08AD01287700019096088540        BLN52P    PDUIT  520320230805
BJT03030003906AD01332CKMK15AD01332C000184813924862       BLN52P    PDUPI  520020230805
BJT03030003906AD01332CKMK15AD01332C0001847114954137      BLN52P    PDUIT  520320230805
BJT03030006344AD013380KMK39AD0133800001866111120000      BLN52P    PDUPI  520020230805
BJT03030006344AD013380KMK39AD013380000186520000000       BLN52P    PDUIT  520320230805
BJT03030006596AD013560KMK45AD013560000186899666260       BLN52P    PDUPI  520020230805
BJT03030006596AD013560KMK45AD013560000186744943740       BLN52P    PDUIT  520320230805
BJT03030006597AD013561KMK45AD0135610001870186869819      BLN52P    PDUPI  520020230805
BJT03030006597AD013561KMK45AD013561000186984270181       BLN52P    PDUIT  520320230805
BJT03030006629AD013618KMK15AD0136180001854182735197      BLN52P    PYSPI  520020230805
BJT03030006629AD013618KMK15AD013618000185392184803       BLN52P    PYSIT  520320230805
BJT03030003635AD013680KMK15AD013680000186232405843       BLN52P    PDUPI  520020230805
BJT03030003635AD013680KMK15AD013680000186127394157       BLN52P    PDUIT  520320230805
BJT03030002705AD013804KMK15AD0138040001856333659710      BLN52P    PDUPI  520020230805
BJT03030002705AD013804KMK15AD0138040001855205210290      BLN52P    PYSIT  520320230805
BJT03030004000AD01393CKMK15AD01393C0001852764966069      BLN52P    PDUPI  520020230805
BJT03030004000AD01393CKMK15AD01393C0001851119982007      BLN52P    PDUIT  520320230805
BJT03030004836AD01395CKMK15AD01395C0001850336391553      BLN52P    PDUPI  520020230805
BJT03030004836AD01395CKMK15AD01395C000184918302901       BLN52P    PDUIT  520320230805
BJT03030006850AD014031KMK45AD0140310001872218274864      BLN52P    PDUPI  520020230805
BJT03030006850AD014031KMK45AD0140310001871148285136      BLN52P    PDUIT  520320230805
BJT03030006851AD014032KMK45AD014032000187454568716       BLN52P    PYSPI  520020230805
BJT03030006851AD014032KMK45AD014032000187337071284       BLN52P    PYSIT  520320230805
BJT03030006954AD014192KMK45AD0141920001880353983333      BLN52P    PDUPI  520020230805
BJT03030006954AD014192KMK45AD0141920001879269166667      BLN52P    PDUIT  520320230805
BJT03030006955AD014193KMP02AD0141930001890138890000      BLN52P    PYSPI  520020230805
BJT03030006955AD014193KMP02AD014193000188912500000       BLN52P    PYSIT  520320230805
BJT03030002844AD113681KMP01AD113681000188483340000       BLN52P    PYSPI  520020230805
BJT03030002844AD113681KMP01AD11368100018832500000        BLN52P    PYSIT  520320230805
BJT03030004502AD114083KMK45AD1140830001876267586491      BLN52P    PDUPI  520020230805
BJT03030004502AD114083KMK45AD1140830001875110473509      BLN52P    PDUIT  520320230805
BJT03030004773AD114084KMK45AD114084000187889195497       BLN52P    PDUPI  520020230805
BJT03030004773AD114084KMK45AD114084000187736824503       BLN52P    PDUIT  520320230805
BJT03030006663AD114127KMP02AD1141270001886104170000      BLN52P    PYSPI  520020230805
BJT03030006663AD114127KMP02AD11412700018856250000        BLN52P    PYSIT  520320230805
BJT03030006915AD114128KMP02AD1141280001888138890000      BLN52P    PYSPI  520020230805
BJT03030006915AD114128KMP02AD114128000188712500000       BLN52P    PYSIT  520320230805
BJT03131005351AE002443KON08AE002443000195886989501       BLN52P    PDUPI  520020230805
BJT03131005351AE002443KON08AE002443000195712320499       BLN52P    PDUIT  520320230805
BJT03131000598AE002776KON08AE0027760001956102728583      BLN52P    PDUPI  520020230805
BJT03131000598AE002776KON08AE002776000195511301417       BLN52P    PDUIT  520320230805
BJT03131004894AE003435KON08AE003435000195281865160       BLN52P    PDUPI  520020230805
BJT03131004894AE003435KON08AE003435000195113154840       BLN52P    PDUIT  520320230805
BJT03131005850AE003769KMK15AE0037690001935195014664      BLN52P    PDUPI  520020230805
BJT03131005850AE003769KMK15AE003769000193444185336       BLN52P    PDUIT  520320230805
BJT03131006595AE004012KMK15AE0040120001920478183788      BLN52P    PDUPI  520020230805
BJT03131006595AE004012KMK15AE0040120001919300026212      BLN52P    PDUIT  520320230805
BJT03131007148AE004436KMK15AE0044360001923102747245      BLN52P    PDUPI  520020230805
BJT03131007148AE004436KMK15AE004436000192223277755       BLN52P    PYSIT  520320230805
BJT03131007149AE004437KMK15AE004437000192749504500       BLN52P    PDUPI  520020230805
BJT03131007149AE004437KMK15AE004437000192623810500       BLN52P    PDUIT  520320230805
BJT03131007081AE004438KON18AE004438000196655502800       BLN52P    PDUPI  520020230805
BJT03131007081AE004438KON18AE004438000196519981000       BLN52P    PYSIT  520320230805
BJT03131006453AE004503KMK42AE004503000193925000000       BLN52P    PYSIT  520320230805
BJT03131006625AE004667KMP02AE0046670001946111111111      BLN52P    PYSPI  520020230805
BJT03131006625AE004667KMP02AE004667000194510000000       BLN52P    PYSIT  520320230805
BJT03131006484AE004668KMK36AE0046680001937228124980      BLN52P    PYSIT  520320230805
BJT03108038010AE004669KON11AE0046690001960250000000      BLN52P    PYSPI  520020230805
BJT03108038010AE004669KON11AE004669000195930625000       BLN52P    PYSIT  520320230805
BJT03131007402AE004686KON18AE004686000196874970000       BLN52P    PDUPI  520020230805
BJT03131007402AE004686KON18AE004686000196726990000       BLN52P    PDUIT  520320230805
BJT03131005768AE004688KON11AE004688000196275000000       BLN52P    PDUPI  520020230805
BJT03131005768AE004688KON11AE00468800019617218750        BLN52P    PYSIT  520320230805
BJT03131006877AE004689KMK15AE0046890001933477732813      BLN52P    PDUPI  520020230805
BJT03131006877AE004689KMK15AE0046890001932320377187      BLN52P    PDUIT  520320230805
BJT03131006542AE004690KM01EAE0046900001949128125000      BLN52P    PYSIT  520320230805
BJT03131007460AE004734KMP02AE004734000194847915000       BLN52P    PYSPI  520020230805
BJT03131007460AE004734KMP02AE00473400019472875000        BLN52P    PYSIT  520320230805
BJT03131006526AE004735KMK36AE0047350001938152083320      BLN52P    PDUIT  520320230805
BJT03131005741AE02758CKMK15AE02758C000191883564107       BLN52P    PDUPI  520020230805
BJT03131005741AE02758CKMK15AE02758C000191710579479       BLN52P    PDUIT  520320230805
BJT03131006519AE03471CKMK45AE03471C000194298092100       BLN52P    PDUPI  520020230805
BJT03131006519AE03471CKMK45AE03471C00019414658365        BLN52P    PDUIT  520320230805
BJT03131006471AE101543KMK15AE101543000192162595846       BLN52P    PYSIT  520320230805
BJT03131007150AE101694KMK15AE101694000192568980690       BLN52P    PDUPI  520020230805
BJT03131007150AE101694KMK15AE10169400019247579310        BLN52P    PYSIT  520320230805
BJT03131007223AE101738KON08AE101738000195460344190       BLN52P    PDUPI  520020230805
BJT03131007223AE101738KON08AE101738000195330355810       BLN52P    PDUIT  520320230805
BJT03131004690AE101743KMK15AE101743000192998266800       BLN52P    PDUPI  520020230805
BJT03131004690AE101743KMK15AE101743000192878767981       BLN52P    PDUIT  520320230805
BJT03131005062AE101797KMK42AE101797000194025000000       BLN52P    PYSIT  520320230805
BJT03131007287AE101844KMK36AE101844000193676041660       BLN52P    PYSIT  520320230805
BJT03131006713AE101845KMK15AE1018450001931115323413      BLN52P    PYSPI  520020230805
BJT03131006713AE101845KMK15AE101845000193066056587       BLN52P    PYSIT  520320230805
BJT03131007367AE101931KMP02AE101931000194472925000       BLN52P    PYSPI  520020230805
BJT03131007367AE101931KMP02AE10193100019434375000        BLN52P    PYSIT  520320230805
BJT03131006124AE101997KON11AE101997000196447500000       BLN52P    PDUPI  520020230805
BJT03131006124AE101997KON11AE10199700019634037500        BLN52P    PYSIT  520320230805
BJT03131006239AE200048KM36BAE2000480001950121666650      BLN52P    PYSIT  520320230805
BJT03131007368AE200049KPM03AE20004900019694750000        BLN52P    PYSIT  520320230805
BJT03131007429AE200071KPM04AE200071000197012500000       BLN52P    PYSIT  520320230805
BJT03131007430AE200072KPM04AE200072000197112500000       BLN52P    PYSIT  520320230805
BJT03131007431AE200073KPM04AE20007300019726250000        BLN52P    PYSIT  520320230805
BJT03232001346AF001777KON08AF001777000198452209935       BLN52P    PDUPI  520020230805
BJT03232001346AF001777KON08AF0017770001983870166         BLN52P    PYSIT  520320230805
BJT03232000266AF002893KON08AF002893000199656913725       BLN52P    PDUPI  520020230805
BJT03232000266AF002893KON08AF002893000199512126275       BLN52P    PDUIT  520320230805
BJT03232001824AF002894KON08AF0028940001986162551655      BLN52P    PDUPI  520020230805
BJT03232001824AF002894KON08AF002894000198534688345       BLN52P    PDUIT  520320230805
BJT03232001721AF004083KON08AF004083000198861668734       BLN52P    PDUPI  520020230805
BJT03232001721AF004083KON08AF00408300019876761266        BLN52P    PDUIT  520320230805
BJT03232000822AF004376KON08AF004376000199058103309       BLN52P    PYSPI  520020230805
BJT03232000822AF004376KON08AF004376000198910326691       BLN52P    PYSIT  520320230805
BJT03202010449AF004721KON12AF00472100020018440278        BLN52P    PDUPI  520020230805
BJT03202010449AF004721KON12AF00472100020007596250        BLN52P    PDUIT  520320230805
BJT03232001275AF004728KON12AF004728000199783333333       BLN52P    PDUPI  520020230805
BJT03232002497AF004891KON08AF004891000199264510628       BLN52P    PYSPI  520020230805
BJT03232002497AF004891KON08AF0048910001991115679372      BLN52P    PYSIT  520320230805
BJT03232002801AF005328KON08AF005328000199465191287       BLN52P    PYSPI  520020230805
BJT03232002801AF005328KON08AF00532800019938246213        BLN52P    PYSIT  520320230805
BJT03232002294AF006139KON12AF006139000199920840000       BLN52P    PYSPI  520020230805
BJT03232002294AF006139KON12AF006139000199825000000       BLN52P    PYSIT  520320230805
BJT03232002481AF006517KMK48AF0065170001976138888889      BLN52P    PDUPI  520020230805
BJT03232002481AF006517KMK48AF006517000197541666667       BLN52P    PDUIT  520320230805
BJT03232003478AF006579KMP01AF006579000197866666667       BLN52P    PDUPI  520020230805
BJT03232003478AF006579KMP01AF00657900019772000000        BLN52P    PDUIT  520320230805
BJT03232003477AF006580KMP01AF006580000198050000000       BLN52P    PDUPI  520020230805
BJT03232003477AF006580KMP01AF00658000019791500000        BLN52P    PYSIT  520320230805
BJT03232003479AF006581KMK15AF006581000197435676895       BLN52P    PYSPI  520020230805
BJT03232003479AF006581KMK15AF006581000197320068480       BLN52P    PYSIT  520320230805
BJT03232003698AF006991KMP02AF006991000198262500000       BLN52P    PDUPI  520020230805
BJT03232003698AF006991KMP02AF00699100019813750000        BLN52P    PYSIT  520320230805
BJT02929005613AK000001KMP02AK000001000182055555556       BLN52P    PYSPI  520020230805
BJT02929005613AK000001KMP02AK00000100018195000000        BLN52P    PYSIT  520320230805
BJT00101125612A1008603KIN30A10086030000008206156357      BLN52P    PYSPI  520020230805
BJT00101125612A1008603KIN30A1008603000000747777917       BLN52P    PYSIT  520320230805
BJT00101130566A1008672KIN08A10086720000004233558835      BLN52P    PDUPI  520020230805
BJT00101130566A1008672KIN08A10086720000003177691160      BLN52P    PDUIT  520320230805
BJT00101130927A1008687KIP01A1008687000001683333333       BLN52P    PDUPI  520020230805
BJT00101130927A1008687KIP01A100868700000152500000        BLN52P    PDUIT  520320230805
BJT00101131186A1008707KIP02A10087070000020125000000      BLN52P    PYSPI  520020230805
BJT00101131186A1008707KIP02A100870700000193750000        BLN52P    PYSIT  520320230805
BJT00101130664A2002631KIP01A2002631000001458333333       BLN52P    PDUPI  520020230805
BJT00101130664A2002631KIP01A200263100000131750000        BLN52P    PYSIT  520320230805
BJT00101131185A2002662KIP02A20026620000018138888889      BLN52P    PYSPI  520020230805
BJT00101131185A2002662KIP02A2002662000001712500000       BLN52P    PYSIT  520320230805
BJT00101131105A300876AKMK17A300876A00000231181250000     BLN52P    PDUIT  520320230805
BJT00101130142A3008776KIN08A30087760000006176364740      BLN52P    PDUPI  520020230805
BJT00101130142A3008776KIN08A30087760000005113858712      BLN52P    PDUIT  520320230805
BJT00101121423A3008777KON11A30087770000039633333333      BLN52P    PYSPI  520020230805
BJT00101121423A3008777KON11A3008777000003837604167       BLN52P    PYSIT  520320230805
BJT00111138547A3008787KON11A3008787000004141666667       BLN52P    PYSPI  520020230805
BJT00111138547A3008787KON11A300878700000406076389        BLN52P    PYSIT  520320230805
BJT00101130451A3208833KON08A32088330000025134305545      BLN52P    PDUPI  520020230805
BJT00101130451A3208833KON08A320883300000241790741        BLN52P    PDUIT  520320230805
BJT00101129370A3208850KON08A32088500000027282683902      BLN52P    PDUPI  520020230805
BJT00101129370A3208850KON08A3208850000002631598243       BLN52P    PDUIT  520320230805
BJT00101131005A3208930KON08A3208930000003797489443       BLN52P    PDUPI  520020230805
BJT00101131005A3208930KON08A3208930000003672552242       BLN52P    PDUIT  520320230805
BJT00101131006A3208931KON08A32089310000029270038148      BLN52P    PDUPI  520020230805
BJT00101131006A3208931KON08A3208931000002872703626       BLN52P    PDUIT  520320230805
BJT00101129485A3209037KON08A3209037000003137074056       BLN52P    PDUPI  520020230805
BJT00101129485A3209037KON08A3209037000003011889055       BLN52P    PDUIT  520320230805
BJT00101125857A3209050KON21A32090500000043152398120      BLN52P    PDUPI  520020230805
BJT00101125857A3209050KON21A3209050000004214598326       BLN52P    PDUIT  520320230805
BJT00101129236A3209064KON08A32090640000033143745436      BLN52P    PYSPI  520020230805
BJT00101129236A3209064KON08A3209064000003284775279       BLN52P    PYSIT  520320230805
BJT00101130665A5000758KIP01A5000758000001275000000       BLN52P    PDUPI  520020230805
BJT00101130665A5000758KIP01A500075800000112250000        BLN52P    PDUIT  520320230805
BJT00101130665A5000758KIP01A5000758080501I2250000        ELNB45P2  PDYIT      20230805
BJT00101130448A6000494KIN30A6000494000001041138809       BLN52P    PYSPI  520020230805
BJT00101130448A6000494KIN30A600049400000098785293        BLN52P    PYSIT  520320230805
BJT00101129270A7000195KMK14A7000195000002263225471       BLN52P    PYSPI  520020230805
BJT00101129270A7000195KMK14A7000195000002127155518       BLN52P    PYSIT  520320230805
BJT00101130449A7000199KIN08A7000199000000284665078       BLN52P    PYSPI  520020230805
BJT00101130449A7000199KIN08A7000199000000162209920       BLN52P    PYSIT  520320230805
BJT00101129523A7200547KON08A7200547000003551319449       BLN52P    PDUPI  520020230805
BJT00101129523A7200547KON08A7200547000003478382053       BLN52P    PDUIT  520320230805
BJT00202009516B0016467KON08B00164670000083162407911      BLN52P    PDUPI  520020230805
BJT00202009516B0016467KON08B001646700000828682089        BLN52P    PDUIT  520320230805
BJT00202010705B0018142KON08B0018142000008573524022       BLN52P    PDUPI  520020230805
BJT00202010705B0018142KON08B0018142000008410545978       BLN52P    PDUIT  520320230805
BJT00202010828B0018783KON08B0018783000008771426256       BLN52P    PDUPI  520020230805
BJT00202010828B0018783KON08B0018783000008629163744       BLN52P    PDUIT  520320230805
BJT00202000591B0021435KON08B0021435000005584564611       BLN52P    PYSPI  520020230805
BJT00202000591B0021435KON08B0021435000005431035389       BLN52P    PYSIT  520320230805
BJT00202011092B0022710KON08B0022710000006912332008       BLN52P    PDUPI  520020230805
BJT00202011092B0022710KON08B002271000000689367992        BLN52P    PDUIT  520320230805
BJT00202010341B0022717KON08B0022717000007528624488       BLN52P    PDUPI  520020230805
BJT00202010341B0022717KON08B0022717000007443445512       BLN52P    PDUIT  520320230805
BJT00202009273B0024224KON08B0024224000005780920666       BLN52P    PDUPI  520020230805
BJT00202009273B0024224KON08B002422400000568889334        BLN52P    PDUIT  520320230805
BJT00202005675B0024233KON08B0024233000007776214210       BLN52P    PDUPI  520020230805
BJT00202005675B0024233KON08B0024233000007626425790       BLN52P    PDUIT  520320230805
BJT00202009185B0024234KON08B0024234000005997881255       BLN52P    PYSPI  520020230805
BJT00202009185B0024234KON08B0024234000005859748745       BLN52P    PYSIT  520320230805
BJT00202011039B0024238KON08B002423800000719217712        BLN52P    PDUPI  520020230805
BJT00202011039B0024238KON08B002423800000708532288        BLN52P    PDUIT  520320230805
BJT00202008711B0024492KON08B0024492000006333313040       BLN52P    PDUPI  520020230805
BJT00202008711B0024492KON08B002449200000624776960        BLN52P    PDUIT  520320230805
BJT00202005686B0024505KON08B0024505000007334167769       BLN52P    PDUPI  520020230805
BJT00202005686B0024505KON08B002450500000724322231        BLN52P    PDUIT  520320230805
BJT00202004377B0024506KON08B0024506000007930278754       BLN52P    PDUPI  520020230805
BJT00202004377B0024506KON08B0024506000007828891246       BLN52P    PDUIT  520320230805
BJT00202004152B0024507KON08B0024507000006122201571       BLN52P    PYSPI  520020230805
BJT00202004152B0024507KON08B002450700000603188429        BLN52P    PYSIT  520320230805
BJT00202009277B0024508KON08B0024508000006566626081       BLN52P    PYSPI  520020230805
BJT00202009277B0024508KON08B002450800000649553919        BLN52P    PYSIT  520320230805
BJT00202005588B0027502KON08B0027502000006794274537       BLN52P    PDUPI  520020230805
BJT00202005588B0027502KON08B0027502000006632695463       BLN52P    PDUIT  520320230805
BJT00202005590B0027503KON08B0027503000008994274537       BLN52P    PDUPI  520020230805
BJT00202005590B0027503KON08B0027503000008832695463       BLN52P    PDUIT  520320230805
BJT00202005591B0027504KON08B0027504000009194274537       BLN52P    PDUPI  520020230805
BJT00202005591B0027504KON08B0027504000009032695463       BLN52P    PDUIT  520320230805
BJT00202005589B0027505KON08B0027505000009394274537       BLN52P    PDUPI  520020230805
BJT00202005589B0027505KON08B0027505000009232695463       BLN52P    PDUIT  520320230805
BJT00202005587B0027509KON08B00275090000081141402735      BLN52P    PDUPI  520020230805
BJT00202005587B0027509KON08B0027509000008049047265       BLN52P    PDUIT  520320230805
BJT00202004877B3029505KMK15B3029505000004591231148       BLN52P    PDUPI  520020230805
BJT00202004877B3029505KMK15B3029505000004464408852       BLN52P    PDUIT  520320230805
BJT00202006753B3031176KMP01B3031176000004983340000       BLN52P    PYSPI  520020230805
BJT00202006753B3031176KMP01B303117600000482500000        BLN52P    PYSIT  520320230805
BJT00202006754B3031767KMP02B3031767000005155560000       BLN52P    PYSPI  520020230805
BJT00202006754B3031767KMP02B303176700000505000000        BLN52P    PYSIT  520320230805
BJT00202003659B4030412KMK39B4030412080401P208340000      ELNB45P2  PDYPI      20230805
BJT00202003659B4030412KMK39B4030412080401I25000000       ELNB45P2  PDYIT      20230805
BJT00202006856B4031491KMK45B4031491000004734511944       BLN52P    PDUPI  520020230805
BJT00202006856B4031491KMK45B4031491000004620098056       BLN52P    PDUIT  520320230805
BJT00202006961B4031768KMP02B40317680000053138890000      BLN52P    PYSPI  520020230805
BJT00202006961B4031768KMP02B4031768000005212500000       BLN52P    PYSIT  520320230805
BJT00303162741C1009183KIN25C1009183000009564450000       BLN52P    PDUPI  520020230805
BJT00303162741C1009183KIN25C1009183000009450000000       BLN52P    PDUIT  520320230805
BJT00303163222C1019802KMK15C1019802000009933999535       BLN52P    PDUPI  520020230805
BJT00303163222C1019802KMK15C101980200000986927057        BLN52P    PDUIT  520320230805
BJT00303165651C1020080KMP02C10200800000137208333333      BLN52P    PYSPI  520020230805
BJT00303165651C1020080KMP02C1020080000013612500000       BLN52P    PYSIT  520320230805
BJT00303162066C1029532KON18C1029532000015545694400       BLN52P    PDUPI  520020230805
BJT00303162066C1029532KON18C102953200001548225000        BLN52P    PDUIT  520320230805
BJT00303165140C1039463KMK15C10394630000105371268895      BLN52P    PDUPI  520020230805
BJT00303165140C1039463KMK15C10394630000104178581105      BLN52P    PDUIT  520320230805
BJT00303165273C1039579KMK15C10395790000107174632479      BLN52P    PDUPI  520020230805
BJT00303165273C1039579KMK15C10395790000106214475788      BLN52P    PDUIT  520320230805
BJT00303164120C1039580KMP01C1039580000011583333333       BLN52P    PYSPI  520020230805
BJT00303164120C1039580KMP01C103958000001142500000        BLN52P    PYSIT  520320230805
BJT00303165393C1039731KMK15C10397310000109157018968      BLN52P    PDUPI  520020230805
BJT00303165393C1039731KMK15C10397310000108141982232      BLN52P    PDUIT  520320230805
BJT00303160309C1039797KMK15C10397970000111113169670      BLN52P    PDUPI  520020230805
BJT00303160309C1039797KMK15C1039797000011072648247       BLN52P    PDUIT  520320230805
BJT00303165552C1039946KMP02C10399460000123138888889      BLN52P    PYSPI  520020230805
BJT00303165552C1039946KMP02C1039946000012212500000       BLN52P    PYSIT  520320230805
BJT00303165553C1039947KMP02C1039947000012769444444       BLN52P    PYSPI  520020230805
BJT00303165553C1039947KMP02C103994700001266250000        BLN52P    PYSIT  520320230805
BJT00303165551C1039948KMP02C1039948000012562500000       BLN52P    PYSPI  520020230805
BJT00303165551C1039948KMP02C103994800001243750000        BLN52P    PYSIT  520320230805
BJT00303165595C1040003KMP02C10400030000133138888889      BLN52P    PYSPI  520020230805
BJT00303165595C1040003KMP02C1040003000013212500000       BLN52P    PYSIT  520320230805
BJT00303163809C10967CCKMK15C10967CC000010171690867       BLN52P    PDUPI  520020230805
BJT00303163809C10967CCKMK15C10967CC000010052144654       BLN52P    PDUIT  520320230805
BJT00303164368C1416899KON08C1416899000013957123940       BLN52P    PDUPI  520020230805
BJT00303164368C1416899KON08C1416899000013822366060       BLN52P    PDUIT  520320230805
BJT00303164369C1416989KON08C1416989000014157123940       BLN52P    PDUPI  520020230805
BJT00303164369C1416989KON08C1416989000014022366060       BLN52P    PDUIT  520320230805
BJT00303162781C1420309KON08C1420309000014958438671       BLN52P    PDUPI  520020230805
BJT00303162781C1420309KON08C1420309000014832861329       BLN52P    PDUIT  520320230805
BJT00303161103C1420336KON08C1420336000015168169016       BLN52P    PDUPI  520020230805
BJT00303161103C1420336KON08C1420336000015038340984       BLN52P    PDUIT  520320230805
BJT00303164921C1420376KON08C1420376000015347645389       BLN52P    PDUPI  520020230805
BJT00303164921C1420376KON08C142037600001523254611        BLN52P    PDUIT  520320230805
BJT00303164502C1429673KON08C1429673000014334900667       BLN52P    PDUPI  520020230805
BJT00303164502C1429673KON08C1429673000014251709333       BLN52P    PDUIT  520320230805
BJT00303010993C1429810KON08C1429810000014763007427       BLN52P    PDUPI  520020230805
BJT00303010993C1429810KON08C1429810000014611322573       BLN52P    PDUIT  520320230805
BJT00303162747C1809286KIN25C1809286000009783333333       BLN52P    PDUPI  520020230805
BJT00303162747C1809286KIN25C1809286000009641666667       BLN52P    PDUIT  520320230805
BJT00303165652C2020079KMP02C20200790000135138888889      BLN52P    PYSPI  520020230805
BJT00303165652C2020079KMP02C2020079000013412500000       BLN52P    PYSIT  520320230805
BJT00303165018C2030012KMK15C2030012000011318863428       BLN52P    PDUPI  520020230805
BJT00303165018C2030012KMK15C2030012000011223194954       BLN52P    PDUIT  520320230805
BJT00303165550C2039944KMP02C2039944000011983333333       BLN52P    PYSPI  520020230805
BJT00303165550C2039944KMP02C203994400001182500000        BLN52P    PYSIT  520320230805
BJT00303164093C2429692KON08C2429692000014555551439       BLN52P    PDUPI  520020230805
BJT00303164093C2429692KON08C2429692000014437178561       BLN52P    PDUIT  520320230805
BJT00303164579C4029721KMK15C40297210000103114004802      BLN52P    PDUPI  520020230805
BJT00303164579C4029721KMK15C4029721000010216095198       BLN52P    PDUIT  520320230805
BJT00303165272C4039581KMP01C4039581000011783333333       BLN52P    PDUPI  520020230805
BJT00303165272C4039581KMP01C403958100001162500000        BLN52P    PYSIT  520320230805
BJT00303165341C4039671KMK39C4039671070401P83333333       ELNB45P2  PDYPI      20230805
BJT00303165341C4039671KMK39C4039671070401I15000000       ELNB45P2  PDYIT      20230805
BJT00303163098C4039945KMP02C40399450000121208333333      BLN52P    PYSPI  520020230805
BJT00303163098C4039945KMP02C4039945000012012500000       BLN52P    PYSIT  520320230805
BJT00303165594C4040001KMP02C4040001000012966700000       BLN52P    PYSPI  520020230805
BJT00303165594C4040001KMP02C404000100001284000000        BLN52P    PYSIT  520320230805
BJT00303165593C4040002KMP02C4040002000013166700000       BLN52P    PDUPI  520020230805
BJT00303165593C4040002KMP02C404000200001302000000        BLN52P    PYSIT  520320230805
BJT00404603983D1023976KMK15D1023976050701I148327979      ELNB45P2  PDYIT      20230805
BJT00404603636D1024066KMK15D1024066000016928254518       BLN52P    PDUPI  520020230805
BJT00404603636D1024066KMK15D1024066000016815256889       BLN52P    PYSIT  520320230805
BJT00404605290D1024361KMK15D1024361000016356385226       BLN52P    PDUPI  520020230805
BJT00404605290D1024361KMK15D1024361000016232538295       BLN52P    PYSIT  520320230805
BJT00404604024D1025278KMP02D10252780000178208333333      BLN52P    PYSPI  520020230805
BJT00404604024D1025278KMP02D1025278000017712500000       BLN52P    PYSIT  520320230805
BJT00404012972D1025279KON09D1025279000019074445705       BLN52P    PYSPI  520020230805
BJT00404012972D1025279KON09D1025279000018919910463       BLN52P    PYSIT  520320230805
BJT00404605742D1025339KM01ED10253390000187298958333      BLN52P    PDUIT  520320230805
BJT00404605966D1025341KMP02D1025341000018237500000       BLN52P    PYSPI  520020230805
BJT00404605966D1025341KMP02D102534100001811125000        BLN52P    PYSIT  520320230805
BJT00404603959D200023CKMK15D200023C000016115583255       BLN52P    PDUPI  520020230805
BJT00404603959D200023CKMK15D200023C000016055614460       BLN52P    PDUIT  520320230805
BJT00404605660D2024921KMP01D2024921000017683333333       BLN52P    PDUPI  520020230805
BJT00404605660D2024921KMP01D202492100001752500000        BLN52P    PDUIT  520320230805
BJT00404604440D3023143KMK15D3023143000015944841494       BLN52P    PDUPI  520020230805
BJT00404604440D3023143KMK15D3023143000015829565890       BLN52P    PDUIT  520320230805
BJT00404604843D3024804KMK15D3024804000016562855935       BLN52P    PDUPI  520020230805
BJT00404604843D3024804KMK15D3024804000016428784115       BLN52P    PYSIT  520320230805
BJT00404605600D3024824KMK15D3024824072201P334404333      ELNB45P2  PDYPI      20230805
BJT00404015867D3024833KMK15D30248330000167240275050      BLN52P    PYSPI  520020230805
BJT00404015867D3024833KMK15D30248330000166278535973      BLN52P    PYSIT  520320230805
BJT00404605619D3024856KMK41D3024856000017415000000       BLN52P    PDUIT  520320230805
BJT00404605922D3025277KPM02D30252770000192333333333      BLN52P    PDUPI  520020230805
BJT00404605922D3025277KPM02D302527700001915000000        BLN52P    PDUIT  520320230805
BJT00404606000D3025385KMP02D30253850000184138888889      BLN52P    PDUPI  520020230805
BJT00404606000D3025385KMP02D3025385000018312500000       BLN52P    PDUIT  520320230805
BJT00404605258D4024309KMK15D4024309000017180066405       BLN52P    PDUPI  520020230805
BJT00404605258D4024309KMK15D4024309000017012842553       BLN52P    PDUIT  520320230805
BJT00404605053D4024475KMK15D4024475000017323010736       BLN52P    PDUPI  520020230805
BJT00404605053D4024475KMK15D4024475000017257464282       BLN52P    PDUIT  520320230805
BJT00404605698D4025338KM36BD40253380000188532291650      BLN52P    PDUIT  520320230805
BJT00404605967D4025340KMP02D40253400000180138888889      BLN52P    PYSPI  520020230805
BJT00404605967D4025340KMP02D4025340000017912500000       BLN52P    PYSIT  520320230805
BJT00404606044D4025443KMP02D4025443000018627777778       BLN52P    PYSPI  520020230805
BJT00404606044D4025443KMP02D402544300001852500000        BLN52P    PYSIT  520320230805
BJT00404605442D4025444KMK01D40254440000157277777778      BLN52P    PDUPI  520020230805
BJT00404605442D4025444KMK01D4025444000015687500000       BLN52P    PYSIT  520320230805
BJT00505327467E0013611KON08E0013611000022225647685       BLN52P    PYSPI  520020230805
BJT00505327467E0013611KON08E0013611000022110092315       BLN52P    PYSIT  520320230805
BJT00505327154E0014883KON08E0014883000022460566798       BLN52P    PYSPI  520020230805
BJT00505327154E0014883KON08E0014883000022341533202       BLN52P    PYSIT  520320230805
BJT00505339368E0015344KON08E0015344000022672029733       BLN52P    PDUPI  520020230805
BJT00505339368E0015344KON08E0015344000022537500267       BLN52P    PDUIT  520320230805
BJT00505338467E0015428KON08E0015428000022855187955       BLN52P    PYSPI  520020230805
BJT00505338467E0015428KON08E0015428000022743432045       BLN52P    PYSIT  520320230805
BJT00505327247E0015534KON08E0015534000023083745419       BLN52P    PYSPI  520020230805
BJT00505327247E0015534KON08E001553400002295134581        BLN52P    PYSIT  520320230805
BJT00505339696E0016388KON08E0016388000023257026379       BLN52P    PYSPI  520020230805
BJT00505339696E0016388KON08E001638800002311723621        BLN52P    PYSIT  520320230805
BJT00505339668E0016565KON08E0016565000023415922504       BLN52P    PYSPI  520020230805
BJT00505339668E0016565KON08E0016565000023318597496       BLN52P    PYSIT  520320230805
BJT00505338740E0017608KON08E0017608000023638407114       BLN52P    PYSPI  520020230805
BJT00505338740E0017608KON08E0017608000023522532886       BLN52P    PYSIT  520320230805
BJT00505341081E0018216KMK42E0018216000020825000000       BLN52P    PYSIT  520320230805
BJT00505343027E0018336KMK36E00183360000206395833320      BLN52P    PDUIT  520320230805
BJT00505342468E0018644KMK42E0018644000021012500000       BLN52P    PYSIT  520320230805
BJT00505342271E0018911KMP02E00189110000214138888900      BLN52P    PDUPI  520020230805
BJT00505342271E0018911KMP02E0018911000021312500000       BLN52P    PYSIT  520320230805
BJT00505343470E0018975KMP02E00189750000220166666700      BLN52P    PDUPI  520020230805
BJT00505343470E0018975KMP02E001897500002195000000        BLN52P    PYSIT  520320230805
BJT00505343470E0018975KMP02E0018975080501P166666700      ELNB45P2  PDYPI      20230805
BJT00505342792E1017926KMK42E1017926000020724500000       BLN52P    PYSIT  520320230805
BJT00505342961E1018228KMK42E1018228000020925000000       BLN52P    PYSIT  520320230805
BJT00505340677E1018379KMK15E10183790000204164383706      BLN52P    PDUPI  520020230805
BJT00505340677E1018379KMK15E1018379000020337246294       BLN52P    PDUIT  520320230805
BJT00505343412E1018913KMK15E10189130000202220456641      BLN52P    PYSPI  520020230805
BJT00505343412E1018913KMK15E10189130000201142323359      BLN52P    PYSIT  520320230805
BJT00505341657E2017659KMK15E20176590000196244207499      BLN52P    PDUPI  520020230805
BJT00505341657E2017659KMK15E2017659000019534522501       BLN52P    PDUIT  520320230805
BJT00505341208E2018912KMP02E20189120000216208333300      BLN52P    PDUPI  520020230805
BJT00505341208E2018912KMP02E2018912000021512500000       BLN52P    PDUIT  520320230805
BJT00505343411E2018914KMP02E20189140000218111111100      BLN52P    PDUPI  520020230805
BJT00505343411E2018914KMP02E2018914000021710000000       BLN52P    PDUIT  520320230805
BJT00505340926E3013607KON08E3013607000023873232292       BLN52P    PDUPI  520020230805
BJT00505340926E3013607KON08E3013607000023728867708       BLN52P    PDUIT  520320230805
BJT00505343058E3018375KMK15E3018375000020074253779       BLN52P    PDUPI  520020230805
BJT00505343058E3018375KMK15E3018375000019935716221       BLN52P    PDUIT  520320230805
BJT00505343580E3019108KMK48E30191080000212138888867      BLN52P    PYSPI  520020230805
BJT00505343580E3019108KMK48E3019108000021142708333       BLN52P    PYSIT  520320230805
BJT00505342461E4018374KMK15E4018374000019824582912       BLN52P    PDUPI  520020230805
BJT00505342461E4018374KMK15E401837400001976547088        BLN52P    PDUIT  520320230805
BJT00505342849E4018643KMK36E4018643000020579166640       BLN52P    PDUIT  520320230805
BJT00505343404E4018909KM36BE4018909 11625945624990       BLN52P    PDYIT  520320230805
BJT00505341266E417126CKMK15E417126C000019463725787       BLN52P    PDUPI  520020230805
BJT00505341266E417126CKMK15E417126C000019392142407       BLN52P    PDUIT  520320230805
BJT00626133232F0012634KON08F0012634000028917346229       BLN52P    PDUPI  520020230805
BJT00626133232F0012634KON08F0012634000028829321860       BLN52P    PDUIT  520320230805
BJT00626136188F0012636KON08F0012636000029136938285       BLN52P    PDUPI  520020230805
BJT00626136188F0012636KON08F001263600002909815161        BLN52P    PDUIT  520320230805
BJT00626134110F0012705KON08F0012705000029354236488       BLN52P    PDUPI  520020230805
BJT00626134110F0012705KON08F0012705000029247432837       BLN52P    PDUIT  520320230805
BJT00626136289F0013036KON08F0013036000029588835579       BLN52P    PYSPI  520020230805
BJT00626136289F0013036KON08F0013036000029412738131       BLN52P    PYSIT  520320230805
BJT00626133971F0013861KON08F0013861000029987576527       BLN52P    PDUPI  520020230805
BJT00626133971F0013861KON08F0013861000029842126229       BLN52P    PDUIT  520320230805
BJT00626136607F0013956KMK15F00139560000246176828325      BLN52P    PYSPI  520020230805
BJT00626136607F0013956KMK15F001395600002458989592        BLN52P    PYSIT  520320230805
BJT00626136651F0014785KMK41F0014785000025912500000       BLN52P    PYSIT  520320230805
BJT00606137088F0015503KMK01F00155030000240111111111      BLN52P    PYSPI  520020230805
BJT00606137088F0015503KMK01F0015503000023933333333       BLN52P    PYSIT  520320230805
BJT00626134924F0015878KON19F0015878000030367938690       BLN52P    PDUPI  520020230805
BJT00626134924F0015878KON19F0015878000030231659363       BLN52P    PDUIT  520320230805
BJT00605019654F0015879KON19F00158790000305291182850      BLN52P    PDUPI  520020230805
BJT00605019654F0015879KON19F0015879000030442825421       BLN52P    PDUIT  520320230805
BJT00626135050F0016169KON11F00161690000301833333300      BLN52P    PDUPI  520020230805
BJT00626135050F0016169KON11F0016169000030094791667       BLN52P    PYSIT  520320230805
BJT00626135306F1013505KMK15F10135050000244666257296      BLN52P    PDUPI  520020230805
BJT00626135306F1013505KMK15F10135050000243261028634      BLN52P    PDUIT  520320230805
BJT00606262426F1014031KM36BF1014031000028111111100       BLN52P    PYSIT  520320230805
BJT00606262561F1014575KMK41F101457500002581250000000     BLN52P    PDUPI  520020230805
BJT00606262561F1014575KMK41F1014575000025725000000       BLN52P    PYSIT  520320230805
BJT00606262506F1014754KM36BF1014754000028224999990       BLN52P    PYSIT  520320230805
BJT00606262620F1014776KM36BF1014776000028341666640       BLN52P    PYSIT  520320230805
BJT00623142730F1015330KM36BF1015330000028437500000       BLN52P    PDUIT  520320230805
BJT00626233137F1015607KMK15F10156070000256118922985      BLN52P    PDUPI  520020230805
BJT00626233137F1015607KMK15F1015607000025566894932       BLN52P    PDUIT  520320230805
BJT00626133984F1015608KMK01F10156080000242138888889      BLN52P    PDUPI  520020230805
BJT00626133984F1015608KMK01F1015608000024141666667       BLN52P    PDUIT  520320230805
BJT00606262756F1016168KM36BF1016168000028783333310       BLN52P    PYSIT  520320230805
BJT00602614068F2013038KON08F2013038000029750051557       BLN52P    PDUPI  520020230805
BJT00602614068F2013038KON08F2013038000029618371816       BLN52P    PDUIT  520320230805
BJT00602614039F2014456KMK15F2014456000024824242512       BLN52P    PYSPI  520020230805
BJT00602614039F2014456KMK15F2014456000024718282995       BLN52P    PYSIT  520320230805
BJT00606301088F2014781KM36AF2014781000026813194420       BLN52P    PDUIT  520320230805
BJT00606301087F2014782KM36AF2014782000026913194420       BLN52P    PDUIT  520320230805
BJT00602614224F2014904KMK15F2014904000025078662579       BLN52P    PYSPI  520020230805
BJT00602614224F2014904KMK15F2014904000024927258575       BLN52P    PYSIT  520320230805
BJT00606301144F2015106KM36AF20151060000279333333333      BLN52P    PDUPI  520020230805
BJT00606301144F2015106KM36AF2015106000027820407386       BLN52P    PDUIT  520320230805
BJT00606301196F2015331KMK15F2015331000025262608055       BLN52P    PDUPI  520020230805
BJT00606301196F2015331KMK15F2015331000025113735649       BLN52P    PDUIT  520320230805
BJT00606301215F2015426KM36AF20154260000273833333333      BLN52P    PDUPI  520020230805
BJT00606301215F2015426KM36AF2015426000027252777770       BLN52P    PDUIT  520320230805
BJT00606301216F2015427KM36AF20154270000271333333333      BLN52P    PDUPI  520020230805
BJT00606301216F2015427KM36AF2015427000027021111090       BLN52P    PDUIT  520320230805
BJT00606124480F2015428KM36BF20154280000286750000000      BLN52P    PYSPI  520020230805
BJT00606124480F2015428KM36BF2015428000028559374980       BLN52P    PYSIT  520320230805
BJT00606124500F2015429KM36AF20154290000275333333333      BLN52P    PDUPI  520020230805
BJT00606124500F2015429KM36AF2015429000027436944430       BLN52P    PDUIT  520320230805
BJT00602614410F2015604KM36AF2015604000028070370370       BLN52P    PDUIT  520320230805
BJT00602614412F2015605KM36AF2015605000027626388870       BLN52P    PYSIT  520320230805
BJT00606301249F2015606KMK15F2015606000025459461492       BLN52P    PDUPI  520020230805
BJT00606301249F2015606KMK15F2015606000025333447466       BLN52P    PDUIT  520320230805
BJT00606301280F2015874KMK41F2015874000026025000000       BLN52P    PYSIT  520320230805
BJT00606301320F2016249KPM03F201624900003067500000        BLN52P    PYSIT  520320230805
BJT00606124482F2016250KMP02F2016250000026541666667       BLN52P    PYSPI  520020230805
BJT00606124482F2016250KMP02F201625000002642500000        BLN52P    PYSIT  520320230805
BJT00606301319F2016251KMP02F20162510000267250000000      BLN52P    PYSPI  520020230805
BJT00606301319F2016251KMP02F201625100002667500000        BLN52P    PYSIT  520320230805
BJT00606301343F2016438KM36AF2016438000027731666650       BLN52P    PYSIT  520320230805
BJT00606400062F3015875KMK41F3015875000026325000000       BLN52P    PYSIT  520320230805
BJT00606262584F3015876KMK41F301587600002617500000        BLN52P    PYSIT  520320230805
BJT00606400063F3015877KMK41F3015877000026215000000       BLN52P    PYSIT  520320230805
BJT00707142962G0011148KMK15G0011148000031617861348       BLN52P    PYSPI  520020230805
BJT00707142962G0011148KMK15G0011148000031554535923       BLN52P    PYSIT  520320230805
BJT00707141869G0011493KMK01G00114930000310416670000      BLN52P    PDUPI  520020230805
BJT00707141869G0011493KMK01G0011493000030925000000       BLN52P    PYSIT  520320230805
BJT00707143965G0011527KIN08G00115270000308239860834      BLN52P    PDUPI  520020230805
BJT00707143965G0011527KIN08G00115270000307126709166      BLN52P    PYSIT  520320230805
BJT00707027120G0011647KON09G0011647000035075384088       BLN52P    PYSPI  520020230805
BJT00707027120G0011647KON09G0011647000034918975912       BLN52P    PYSIT  520320230805
BJT00707144057G0011854KON18G0011854000035279398240       BLN52P    PDUPI  520020230805
BJT00707144057G0011854KON18G0011854000035124414960       BLN52P    PDUIT  520320230805
BJT00707141688G009819CKMK15G009819C000031214117901       BLN52P    PDUPI  520020230805
BJT00707141688G009819CKMK15G009819C000031135190134       BLN52P    PDUIT  520320230805
BJT00707141470G2009264KON08G20092640000330125241032      BLN52P    PDUPI  520020230805
BJT00707141470G2009264KON08G200926400003293928968        BLN52P    PYSIT  520320230805
BJT00707137678G2009668KON08G20096680000332112242304      BLN52P    PDUPI  520020230805
BJT00707137678G2009668KON08G2009668000033116827696       BLN52P    PDUIT  520320230805
BJT00707300132G2011790KMP02G2011790000032855560000       BLN52P    PYSPI  520020230805
BJT00707300132G2011790KMP02G201179000003275000000        BLN52P    PYSIT  520320230805
BJT00773000008G2110784KMK15G21107840000314218399147      BLN52P    PDUPI  520020230805
BJT00773000008G2110784KMK15G2110784000031380610853       BLN52P    PDUIT  520320230805
BJT00773000038G2111764KMP02G21117640000326208340000      BLN52P    PDUPI  520020230805
BJT00773000038G2111764KMP02G2111764000032512500000       BLN52P    PDUIT  520320230805
BJT00707141696G3110844KMK15G3110844000032296318943       BLN52P    PDUPI  520020230805
BJT00707141696G3110844KMK15G3110844000032165771347       BLN52P    PDUIT  520320230805
BJT00774000087G3111151KMK15G31111510000324123980275      BLN52P    PDUPI  520020230805
BJT00774000087G3111151KMK15G31111510000323165698720      BLN52P    PDUIT  520320230805
BJT00774000112G3111464KMK15G31114640000320180208347      BLN52P    PYSPI  520020230805
BJT00774000112G3111464KMK15G31114640000319208901653      BLN52P    PYSIT  520320230805
BJT00707143345G4010516KON08G4010516000034070495087       BLN52P    PDUPI  520020230805
BJT00707143345G4010516KON08G4010516000033917634913       BLN52P    PDUIT  520320230805
BJT00707143346G4010517KON08G4010517000033470495087       BLN52P    PDUPI  520020230805
BJT00707143346G4010517KON08G4010517000033317634913       BLN52P    PDUIT  520320230805
BJT00707143347G4010518KON08G4010518000034246991277       BLN52P    PDUPI  520020230805
BJT00707143347G4010518KON08G4010518000034111758723       BLN52P    PDUIT  520320230805
BJT00707143348G4010519KON08G4010519000034470495087       BLN52P    PDUPI  520020230805
BJT00707143348G4010519KON08G4010519000034317634913       BLN52P    PDUIT  520320230805
BJT00707143349G4010520KON08G4010520000034670495087       BLN52P    PDUPI  520020230805
BJT00707143349G4010520KON08G4010520000034517634913       BLN52P    PDUIT  520320230805
BJT00707143350G4010521KON08G4010521000034846991277       BLN52P    PDUPI  520020230805
BJT00707143350G4010521KON08G4010521000034711758723       BLN52P    PDUIT  520320230805
BJT00775000071G4011062KON08G4011062000033672303689       BLN52P    PYSPI  520020230805
BJT00775000071G4011062KON08G4011062000033518086311       BLN52P    PYSIT  520320230805
BJT00775000073G4011064KON08G4011064000033898264117       BLN52P    PYSPI  520020230805
BJT00775000073G4011064KON08G4011064000033748615883       BLN52P    PYSIT  520320230805
BJT00775000150G4111422KMK15G4111422000031862867949       BLN52P    PDUPI  520020230805
BJT00775000150G4111422KMK15G4111422000031728782051       BLN52P    PDUIT  520320230805
BJT00808040545H2012930KON08H2012930000038794845071       BLN52P    PYSPI  520020230805
BJT00808040545H2012930KON08H2012930000038613604929       BLN52P    PYSIT  520320230805
BJT00808040739H2013401KON08H2013401000038982963837       BLN52P    PYSPI  520020230805
BJT00808040739H2013401KON08H2013401000038825496163       BLN52P    PYSIT  520320230805
BJT00808040736H2013402KON08H2013402000039155313582       BLN52P    PYSPI  520020230805
BJT00808040736H2013402KON08H2013402000039016996418       BLN52P    PYSIT  520320230805
BJT00808040735H2013403KON08H2013403000039331964479       BLN52P    PYSPI  520020230805
BJT00808040735H2013403KON08H201340300003922985521        BLN52P    PYSIT  520320230805
BJT00808040737H2013404KON08H2013404000039555313582       BLN52P    PYSPI  520020230805
BJT00808040737H2013404KON08H2013404000039416996418       BLN52P    PYSIT  520320230805
BJT00808040738H2013405KON08H2013405000039769132173       BLN52P    PYSPI  520020230805
BJT00808040738H2013405KON08H2013405000039621247827       BLN52P    PYSIT  520320230805
BJT00808040930H2013884KIN08H20138840000354116415304      BLN52P    PDUPI  520020230805
BJT00808040930H2013884KIN08H20138840000353142984696      BLN52P    PDUIT  520320230805
BJT00808040696H2013885KMK15H2013885000036235972790       BLN52P    PYSPI  520020230805
BJT00808040696H2013885KMK15H2013885000036119007210       BLN52P    PYSIT  520320230805
BJT00808040980H2013886KMP01H2013886000036783333333       BLN52P    PYSPI  520020230805
BJT00808040980H2013886KMP01H201388600003662500000        BLN52P    PYSIT  520320230805
BJT00808034340H2014092KON19H20140920000399105523369      BLN52P    PYSPI  520020230805
BJT00808034340H2014092KON19H2014092000039826566631       BLN52P    PYSIT  520320230805
BJT00808041213H2014464KIP02H20144640000356138880000      BLN52P    PYSPI  520020230805
BJT00808041213H2014464KIP02H2014464000035512500000       BLN52P    PYSIT  520320230805
BJT00808040885H6013754KMK15H6013754000035861876168       BLN52P    PYSPI  520020230805
BJT00808040885H6013754KMK15H6013754000035729763832       BLN52P    PYSIT  520320230805
BJT00808040450H7012773KON08H7012773000037197711764       BLN52P    PDUPI  520020230805
BJT00808040450H7012773KON08H7012773000037010738236       BLN52P    PDUIT  520320230805
BJT00808040449H7012774KON08H7012774000037397711764       BLN52P    PDUPI  520020230805
BJT00808040449H7012774KON08H7012774000037210738236       BLN52P    PDUIT  520320230805
BJT00808040455H7012775KON08H7012775000037597711764       BLN52P    PDUPI  520020230805
BJT00808040455H7012775KON08H7012775000037410738236       BLN52P    PDUIT  520320230805
BJT00808040453H7012776KON08H7012776000037797711764       BLN52P    PDUPI  520020230805
BJT00808040453H7012776KON08H7012776000037610738236       BLN52P    PDUIT  520320230805
BJT00808040456H7012777KON08H7012777000037932570588       BLN52P    PDUPI  520020230805
BJT00808040456H7012777KON08H701277700003783579412        BLN52P    PDUIT  520320230805
BJT00808040452H7012778KON08H7012778000038132570588       BLN52P    PDUPI  520020230805
BJT00808040452H7012778KON08H701277800003803579412        BLN52P    PDUIT  520320230805
BJT00808040451H7012779KON08H7012779000038348848182       BLN52P    PDUPI  520020230805
BJT00808040451H7012779KON08H701277900003825371818        BLN52P    PDUIT  520320230805
BJT00808040504H7012853KON08H7012853000038596267747       BLN52P    PDUPI  520020230805
BJT00808040504H7012853KON08H7012853000038412182253       BLN52P    PDUIT  520320230805
BJT00808040895H7013755KMK15H7013755000036037120946       BLN52P    PDUPI  520020230805
BJT00808040895H7013755KMK15H7013755000035917859054       BLN52P    PDUIT  520320230805
BJT00808040358H7013795KMK42H7013795000036425000000       BLN52P    PYSIT  520320230805
BJT00808700184H7014090KMK41H7014090000036310000000       BLN52P    PYSIT  520320230805
BJT00808040549H7014091KMK42H7014091000036525000000       BLN52P    PYSIT  520320230805
BJT00808041132H7014295KMP02H70142950000369208330000      BLN52P    PDUPI  520020230805
BJT00808041132H7014295KMP02H7014295000036812500000       BLN52P    PDUIT  520320230805
BJT00909155603I0002902KMK40I0002902000042425000000       BLN52P    PDUIT  520320230805
BJT00909137422I0002903KMK40I0002903000042515000000       BLN52P    PYSIT  520320230805
BJT00909157537I2003757KMK09I20037570000401142884256      BLN52P    PDUPI  520020230805
BJT00909157537I2003757KMK09I2003757000040012310592       BLN52P    PDUIT  520320230805
BJT00909158439I2004132KMK15I2004132000040742790907       BLN52P    PDUPI  520020230805
BJT00909158439I2004132KMK15I2004132000040612954468       BLN52P    PDUIT  520320230805
BJT00909151511I2004133KMK38I2004133000042363888888       BLN52P    PYSPI  520020230805
BJT00909151511I2004133KMK38I200413300004224472222        BLN52P    PYSIT  520320230805
BJT00909159645I2004297KM36AI20042970000477150000000      BLN52P    PDUPI  520020230805
BJT00909159645I2004297KM36AI200429700004769999990        BLN52P    PDUIT  520320230805
BJT00909156213I2004298KM36AI20042980000479416666667      BLN52P    PDUPI  520020230805
BJT00909156213I2004298KM36AI2004298000047827777750       BLN52P    PDUIT  520320230805
BJT00909156760I2004299KMK40I20042990000433250000000      BLN52P    PDUPI  520020230805
BJT00909156760I2004299KMK40I200429900004327500000        BLN52P    PDUIT  520320230805
BJT00909159646I2004300KMK40I20043000000435250000000      BLN52P    PYSPI  520020230805
BJT00909159646I2004300KMK40I200430000004347500000        BLN52P    PYSIT  520320230805
BJT00909159644I2004301KMK41I20043010000455750000000      BLN52P    PDUPI  520020230805
BJT00909159644I2004301KMK41I2004301000045415000000       BLN52P    PDUIT  520320230805
BJT00909160387I2004494KM01AI2004494000046576875000       BLN52P    PYSIT  520320230805
BJT00909160388I2004495KMK15I20044950000415150411043      BLN52P    PYSPI  520020230805
BJT00909160388I2004495KMK15I20044950000414106181097      BLN52P    PYSIT  520320230805
BJT00909158481I2004496KMK41I200449600004586000000        BLN52P    PYSIT  520320230805
BJT00909034173I2203593KON08I22035930000511123994178      BLN52P    PYSPI  520020230805
BJT00909034173I2203593KON08I220359300005108475241        BLN52P    PYSIT  520320230805
BJT00909158367I3005388KMK09I30053880000403173929500      BLN52P    PYSPI  520020230805
BJT00909158367I3005388KMK09I3005388000040211888417       BLN52P    PYSIT  520320230805
BJT00909151665I3005649KMK09I30056490000405126006145      BLN52P    PYSPI  520020230805
BJT00909151665I3005649KMK09I3005649000040422648188       BLN52P    PYSIT  520320230805
BJT00909157097I3005904KM36AI3005904000046738996900       BLN52P    PYSIT  520320230805
BJT00909159159I3005907KMK40I3005907000042925000000       BLN52P    PYSIT  520320230805
BJT00909156504I3006044KM36AI30060440000503534362136      BLN52P    PDUPI  520020230805
BJT00909156504I3006044KM36AI3006044000050280154300       BLN52P    PDUIT  520320230805
BJT00909159648I3006198KMK15I30061980000409107848987      BLN52P    PYSPI  520020230805
BJT00909159648I3006198KMK15I30061980000408130595966      BLN52P    PYSIT  520320230805
BJT00909157606I3006258KM36AI30062580000481444444444      BLN52P    PYSPI  520020230805
BJT00909157606I3006258KM36AI3006258000048051851850       BLN52P    PYSIT  520320230805
BJT00909156758I3006297KM36AI30062970000482116666640      BLN52P    PDUIT  520320230805
BJT00909159868I3006298KMK15I30062980000413202654231      BLN52P    PDUPI  520020230805
BJT00909159868I3006298KMK15I3006298000041246966279       BLN52P    PDUIT  520320230805
BJT00909151543I3006299KMK40I3006299000043625000000       BLN52P    PYSIT  520320230805
BJT00909159180I3006340KM36AI3006340000048330416640       BLN52P    PYSIT  520320230805
BJT00909158349I3006341KM36AI3006341000048436944430       BLN52P    PDUIT  520320230805
BJT00909151783I3006342KM36AI3006342000048560833310       BLN52P    PDUIT  520320230805
BJT00909159958I3006343KMK40I3006343000043810000000       BLN52P    PDUIT  520320230805
BJT00909153532I3006344KMK40I3006344000043715000000       BLN52P    PYSIT  520320230805
BJT00909160336I3006556KPM02I30065560000521833333333      BLN52P    PYSPI  520020230805
BJT00909160336I3006556KPM02I3006556000052012500000       BLN52P    PYSIT  520320230805
BJT00909035818I3006557KMK40I300655700004411666666667     BLN52P    PDUPI  520020230805
BJT00909035818I3006557KMK40I3006557000044025000000       BLN52P    PYSIT  520320230805
BJT00909158148I3006595KMK15I30065950000419142715343      BLN52P    PYSPI  520020230805
BJT00909158148I3006595KMK15I3006595000041858919126       BLN52P    PYSIT  520320230805
BJT00909156823I3006596KM36AI3006596000049947499990       BLN52P    PYSIT  520320230805
BJT00909152786I3006597KMK15I30065970000421107036507      BLN52P    PDUPI  520020230805
BJT00909152786I3006597KMK15I3006597000042044189345       BLN52P    PDUIT  520320230805
BJT00909157885I3205082KON08I3205082000051394269343       BLN52P    PDUPI  520020230805
BJT00909157885I3205082KON08I3205082000051232697794       BLN52P    PDUIT  520320230805
BJT00909157884I3205083KON08I3205083000051594269343       BLN52P    PDUPI  520020230805
BJT00909157884I3205083KON08I3205083000051432697794       BLN52P    PDUIT  520320230805
BJT00909158764I3205651KON08I32056510000517109029670      BLN52P    PYSPI  520020230805
BJT00909158764I3205651KON08I3205651000051617503714       BLN52P    PYSIT  520320230805
BJT00909152756I4004063KMK40I4004063000042615000000       BLN52P    PYSIT  520320230805
BJT00909151788I4004064KMK40I4004064000042710000000       BLN52P    PDUIT  520320230805
BJT00909037057I4004065KMK41I4004065000044925000000       BLN52P    PYSIT  520320230805
BJT00909156133I4004066KMK41I4004066000045015000000       BLN52P    PYSIT  520320230805
BJT00909157571I4004067KM36AI4004067000046631901218       BLN52P    PDUIT  520320230805
BJT00909158717I4004430KMK15I4004430052001P108834467      ELNB45P2  PDYPI      20230805
BJT00909158717I4004430KMK15I4004430052001I53851313       ELNB45P2  PDYIT      20230805
BJT00909158022I4004453KM36AI40044530000475277777778      BLN52P    PDUPI  520020230805
BJT00909158022I4004453KM36AI4004453000047430787020       BLN52P    PYSIT  520320230805
BJT00909159627I4004454KMK15I4004454000041174251473       BLN52P    PDUPI  520020230805
BJT00909159627I4004454KMK15I4004454000041035716587       BLN52P    PDUIT  520320230805
BJT00909159373I4004455KM36AI40044550000507388888889      BLN52P    PDUPI  520020230805
BJT00909159373I4004455KM36AI4004455000050652566660       BLN52P    PDUIT  520320230805
BJT00909159860I4004766KM36AI40047660000490444444444      BLN52P    PDUPI  520020230805
BJT00909159860I4004766KM36AI4004766000048963333330       BLN52P    PYSIT  520320230805
BJT00909159192I4004767KM36AI400476700004921000000000     BLN52P    PDUPI  520020230805
BJT00909159192I4004767KM36AI4004767000049194999980       BLN52P    PDUIT  520320230805
BJT00909156880I4004768KM01AI400476800004641083333333     BLN52P    PDUPI  520020230805
BJT00909156880I4004768KM01AI4004768000046355520833       BLN52P    PYSIT  520320230805
BJT00909148452I4004807KM36AI4004807000049718999990       BLN52P    PYSIT  520320230805
BJT00909158835I4004808KMK15I40048080000417107436459      BLN52P    PDUPI  520020230805
BJT00909158835I4004808KMK15I4004808000041675843641       BLN52P    PDUIT  520320230805
BJT00909158355I4004809KM36AI40048090000498110833320      BLN52P    PDUIT  520320230805
BJT00909036241I4004810KMK40I4004810000044512500000       BLN52P    PYSIT  520320230805
BJT00909159052I4004811KMK40I4004811000044625000000       BLN52P    PYSIT  520320230805
BJT00909157335I4004812KMK40I4004812000044412500000       BLN52P    PYSIT  520320230805
BJT00909149885I4004817KON11I40048170000519145833333      BLN52P    PYSPI  520020230805
BJT00909149885I4004817KON11I4004817000051812031250       BLN52P    PYSIT  520320230805
BJT00909155478I5001568KM36AI5001568000050822222200       BLN52P    PDUIT  520320230805
BJT00909153648I5001697KMK41I5001697000045110000000       BLN52P    PYSIT  520320230805
BJT00909159541I5001874KM36AI50018740000469555555556      BLN52P    PYSPI  520020230805
BJT00909159541I5001874KM36AI5001874000046864814790       BLN52P    PYSIT  520320230805
BJT00909158952I5001877KM36AI50018770000471777777778      BLN52P    PDUPI  520020230805
BJT00909158952I5001877KM36AI5001877000047090740730       BLN52P    PDUIT  520320230805
BJT00909155438I5001878KM36AI50018780000505555555556      BLN52P    PDUPI  520020230805
BJT00909155438I5001878KM36AI5001878000050474074050       BLN52P    PDUIT  520320230805
BJT00909158368I5001879KMK41I500187900004532500000000     BLN52P    PYSPI  520020230805
BJT00909158368I5001879KMK41I5001879000045225000000       BLN52P    PYSIT  520320230805
BJT00909157174I5001880KMK40I50018800000431750000000      BLN52P    PYSPI  520020230805
BJT00909157174I5001880KMK40I5001880000043022500000       BLN52P    PYSIT  520320230805
BJT00909158449I5001881KM36AI500188100004731000000000     BLN52P    PDUPI  520020230805
BJT00909158449I5001881KM36AI50018810000472116666640      BLN52P    PDUIT  520320230805
BJT00909156175I5002057KM36AI50020570000494555555556      BLN52P    PDUPI  520020230805
BJT00909156175I5002057KM36AI5002057000049383333310       BLN52P    PDUIT  520320230805
BJT00909154075I5002058KMK41I5002058000045720000000       BLN52P    PYSIT  520320230805
BJT00909160330I5002059KMK40I50020590000443333333333      BLN52P    PYSPI  520020230805
BJT00909160330I5002059KMK40I500205900004425000000        BLN52P    PYSIT  520320230805
BJT00909157966I5002077KM36AI50020770000500116666640      BLN52P    PYSIT  520320230805
BJT00909155436I5002078KMK40I5002078000044722500000       BLN52P    PYSIT  520320230805
BJT00909153706I5002079KMK40I5002079000044815000000       BLN52P    PYSIT  520320230805
BJT00909159152I7001094KMK40I700109400004287500000        BLN52P    PYSIT  520320230805
BJT00909160292I7001432KM36AI700143200004883333333333     BLN52P    PDUPI  520020230805
BJT00909160292I7001432KM36AI70014320000487158333310      BLN52P    PYSIT  520320230805
BJT00909160291I7001433KMP02I70014330000460416666667      BLN52P    PDUPI  520020230805
BJT00909160291I7001433KMP02I7001433000045912500000       BLN52P    PDUIT  520320230805
BJT00909156743I7001434KMP02I70014340000462138888889      BLN52P    PYSPI  520020230805
BJT00909156743I7001434KMP02I7001434000046112500000       BLN52P    PYSIT  520320230805
BJT00909156889I7001451KM36AI70014510000495158333310      BLN52P    PDUIT  520320230805
BJT00909154965I7001452KM36AI70014520000496126666660      BLN52P    PDUIT  520320230805
BJT00909158171I8000024KMK40I8000024000043925000000       BLN52P    PYSIT  520320230805
BJT00909159904I8000025KMK41I8000025000045625000000       BLN52P    PYSIT  520320230805
BJT00909160094I8000071KM36AI8000071000048613194420       BLN52P    PYSIT  520320230805
BJT00909160374I8000119KM36AI80001190000501102916650      BLN52P    PYSIT  520320230805
BJT00909157252I8000120KM36BI8000120000050939583320       BLN52P    PYSIT  520320230805
BJT01010946504J1014369KMK15J10143690000525166793890      BLN52P    PYSPI  520020230805
BJT01010946504J1014369KMK15J1014369000052416486110       BLN52P    PYSIT  520320230805
BJT01010039926J1015157KMK40J1015157000056310000000       BLN52P    PDUIT  520320230805
BJT01010012347J1015666KON18J10156660000591203725462      BLN52P    PYSPI  520020230805
BJT01010012347J1015666KON18J1015666000059024442842       BLN52P    PYSIT  520320230805
BJT01010012360J1015667KON08J1015667000058587203560       BLN52P    PDUPI  520020230805
BJT01010012360J1015667KON08J1015667000058439326440       BLN52P    PDUIT  520320230805
BJT01010012361J1015668KON08J1015668000058761712745       BLN52P    PDUPI  520020230805
BJT01010012361J1015668KON08J1015668000058613177255       BLN52P    PDUIT  520320230805
BJT01010949011J1015737KMK39J10157370000562138890000      BLN52P    PDUPI  520020230805
BJT01010949011J1015737KMK39J1015737000056125000000       BLN52P    PYSIT  520320230805
BJT01010117093J1015803KON08J1015803000058959117546       BLN52P    PDUPI  520020230805
BJT01010117093J1015803KON08J1015803000058868532454       BLN52P    PDUIT  520320230805
BJT01010011675J1016049KMK15J10160490000539172996067      BLN52P    PDUPI  520020230805
BJT01010011675J1016049KMK15J1016049000053899083933       BLN52P    PDUIT  520320230805
BJT01010011929J1016303KMK42J1016303000056520000000       BLN52P    PYSIT  520320230805
BJT01010116693J1016381KMK15J10163810000547547359954      BLN52P    PDUPI  520020230805
BJT01010116693J1016381KMK15J10163810000546287890046      BLN52P    PDUIT  520320230805
BJT01021094031J1016435KON20J10164350000595250000000      BLN52P    PYSPI  520020230805
BJT01021094031J1016435KON20J1016435000059422500000       BLN52P    PYSIT  520320230805
BJT01010011730J1016436KMK37J10164360000555105624990      BLN52P    PYSIT  520320230805
BJT01016063114J1016510KMK37J1016510000055613749990       BLN52P    PYSIT  520320230805
BJT01010117233J1016512KMP02J10165120000579125000000      BLN52P    PYSPI  520020230805
BJT01010117233J1016512KMP02J101651200005787500000        BLN52P    PYSIT  520320230805
BJT01010041034J200043CKMK43J200043C0000567375879116      BLN52P    PDUPI  520020230805
BJT01010041034J200043CKMK43J200043C0000566111607907      BLN52P    PDUIT  520320230805
BJT01010117224J200108CKMK15J200108C000052336061825       BLN52P    PDUPI  520020230805
BJT01010117224J200108CKMK15J200108C00005221089975        BLN52P    PDUIT  520320230805
BJT01010948574J2016051KMK15J2016051000054157627038       BLN52P    PDUPI  520020230805
BJT01010948574J2016051KMK15J2016051000054072572962       BLN52P    PDUIT  520320230805
BJT01010948588J2016298KMK37J201629800005547812480        BLN52P    PYSIT  520320230805
BJT01010948592J2016299KMK15J20162990000545103618179      BLN52P    PYSPI  520020230805
BJT01010948592J2016299KMK15J2016299000054466891821       BLN52P    PYSIT  520320230805
BJT01010948692J2016300KMP02J2016300000057120830000       BLN52P    PYSPI  520020230805
BJT01010948692J2016300KMP02J201630000005701250000        BLN52P    PYSIT  520320230805
BJT01010945281J2016380KMP02J20163800000577208330000      BLN52P    PYSPI  520020230805
BJT01010945281J2016380KMP02J2016380000057612500000       BLN52P    PYSIT  520320230805
BJT01010948488J2016511KMK15J20165110000551136955833      BLN52P    PYSPI  520020230805
BJT01010948488J2016511KMK15J2016511000055098854167       BLN52P    PYSIT  520320230805
BJT01010117405J3014732KMK15J30147320000553101295312      BLN52P    PDUPI  520020230805
BJT01010117405J3014732KMK15J30147320000552138930570      BLN52P    PDUIT  520320230805
BJT01010941982J3015664KMK15J30156640000533123752336      BLN52P    PDUPI  520020230805
BJT01010941982J3015664KMK15J3015664000053259527664       BLN52P    PDUIT  520320230805
BJT01010117040J3016378KMK15J30163780000549294717220      BLN52P    PDUPI  520020230805
BJT01010117040J3016378KMK15J30163780000548295402780      BLN52P    PDUIT  520320230805
BJT01010116705J3016379KMK41J3016379000056425000000       BLN52P    PYSIT  520320230805
BJT01010117624J4015662KMK15J40156620000535249159759      BLN52P    PDUPI  520020230805
BJT01010117624J4015662KMK15J40156620000534112360241      BLN52P    PDUIT  520320230805
BJT01010117148J4016047KMK15J40160470000543495941036      BLN52P    PDUPI  520020230805
BJT01010117148J4016047KMK15J40160470000542284038964      BLN52P    PDUIT  520320230805
BJT01010117580J4016048KM36BJ4016048000058258298592       BLN52P    PYSIT  520320230805
BJT01010112454J4016304KMP02J4016304000057583330000       BLN52P    PYSPI  520020230805
BJT01010112454J4016304KMP02J401630400005745000000        BLN52P    PYSIT  520320230805
BJT01010944889J5015089KMK15J50150890000529289160073      BLN52P    PDUPI  520020230805
BJT01010944889J5015089KMK15J5015089000052872359927       BLN52P    PDUIT  520320230805
BJT01010042797J5015096KM36BJ5015096000058351499980       BLN52P    PYSIT  520320230805
BJT01010042802J5015156KMK15J50151560000531193738468      BLN52P    PDUPI  520020230805
BJT01010042802J5015156KMK15J50151560000530169431532      BLN52P    PDUIT  520320230805
BJT01010042903J5016301KM01EJ5016301000058064062500       BLN52P    PYSIT  520320230805
BJT01010042902J5016302KMP02J5016302000057383333300       BLN52P    PYSPI  520020230805
BJT01010042902J5016302KMP02J501630200005727500000        BLN52P    PYSIT  520320230805
BJT01010941929J6014729KMK15J60147290000527190079937      BLN52P    PDUPI  520020230805
BJT01010941929J6014729KMK15J60147290000526134180063      BLN52P    PDUIT  520320230805
BJT01010117252J6015153KMK39J6015153000055841670000       BLN52P    PYSPI  520020230805
BJT01010117252J6015153KMK39J601515300005575000000        BLN52P    PYSIT  520320230805
BJT01010040415J6015665KMK39J6015665000056097220000       BLN52P    PDUPI  520020230805
BJT01010040415J6015665KMK39J6015665000055917500000       BLN52P    PDUIT  520320230805
BJT01010118379J6015801KMP01J6015801000056941670000       BLN52P    PDUPI  520020230805
BJT01010118379J6015801KMP01J601580100005681250000        BLN52P    PYSIT  520320230805
BJT01010118378J6015802KON18J6015802000059399443333       BLN52P    PDUPI  520020230805
BJT01010118378J6015802KON18J6015802000059232816667       BLN52P    PDUIT  520320230805
BJT01010118398J6015963KMK15J60159630000537140508308      BLN52P    PDUPI  520020230805
BJT01010118398J6015963KMK15J6015963000053677161692       BLN52P    PDUIT  520320230805
BJT01010117526J6015964KM36BJ6015964000058126234370       BLN52P    PYSIT  520320230805
BJT01111141513K1001072KMK15K10010720000603140122442      BLN52P    PDUPI  520020230805
BJT01111141513K1001072KMK15K1001072000060267401967       BLN52P    PDUIT  520320230805
BJT01111143266K1001846KMK15K1001846080201P191040498      ELNB45P2  PDYPI      20230805
BJT01111143266K1001846KMK15K1001846080201I43283849       ELNB45P2  PDYIT      20230805
BJT01111142447K1002312KMK15K10023120000607117594254      BLN52P    PDUPI  520020230805
BJT01111142447K1002312KMK15K100231200006067216001        BLN52P    PYSIT  520320230805
BJT01111142795K1002313KMK15K10023130000609142546304      BLN52P    PDUPI  520020230805
BJT01111142795K1002313KMK15K1002313000060840733796       BLN52P    PYSIT  520320230805
BJT01111143588K1002698KMK15K10026980000611119004314      BLN52P    PYSPI  520020230805
BJT01111143588K1002698KMK15K1002698000061043681466       BLN52P    PYSIT  520320230805
BJT01111141877K1002893KMK15K10028930000613101160754      BLN52P    PYSPI  520020230805
BJT01111141877K1002893KMK15K1002893000061243448828       BLN52P    PYSIT  520320230805
BJT01111142477K1002975KMK42K100297500006335000000000     BLN52P    PYSPI  520020230805
BJT01111142477K1002975KMK42K1002975000063225000000       BLN52P    PYSIT  520320230805
BJT01111142555K1002977KMK42K100297700006352500000000     BLN52P    PYSPI  520020230805
BJT01111142555K1002977KMK42K1002977000063412500000       BLN52P    PYSIT  520320230805
BJT01111141496K1002980KMK42K100298000006375000000000     BLN52P    PYSPI  520020230805
BJT01111141496K1002980KMK42K1002980000063625000000       BLN52P    PYSIT  520320230805
BJT01111140071K1003086KMK15K10030860000619180929952      BLN52P    PDUPI  520020230805
BJT01111140071K1003086KMK15K10030860000618199971459      BLN52P    PDUIT  520320230805
BJT01111142868K1003087KM01BK10030870000656160416667      BLN52P    PDUIT  520320230805
BJT01111140413K1005333KON08K1005333000066343655015       BLN52P    PDUPI  520020230805
BJT01111140413K1005333KON08K1005333000066229657025       BLN52P    PDUIT  520320230805
BJT01111144132K1005400KMP02K1005400000065483333333       BLN52P    PYSPI  520020230805
BJT01111144132K1005400KMP02K100540000006532500000        BLN52P    PYSIT  520320230805
BJT01111043458K1007622KON08K1007622000066564160954       BLN52P    PDUPI  520020230805
BJT01111043458K1007622KON08K1007622000066425872013       BLN52P    PDUIT  520320230805
BJT01111139752K1007697KON08K1007697000066160798278       BLN52P    PDUPI  520020230805
BJT01111139752K1007697KON08K1007697000066045532018       BLN52P    PDUIT  520320230805
BJT01111139068K1008947KON08K1008947000066749614981       BLN52P    PDUPI  520020230805
BJT01111139068K1008947KON08K1008947000066656715315       BLN52P    PDUIT  520320230805
BJT01111141519K1009057KMK15K10090570000597677375693      BLN52P    PDUPI  520020230805
BJT01111141519K1009057KMK15K10090570000596460175038      BLN52P    PYSIT  520320230805
BJT01111042240K1009504KMK15K10095040000629295726241      BLN52P    PDUPI  520020230805
BJT01111042240K1009504KMK15K1009504000062885175170       BLN52P    PDUIT  520320230805
BJT01111141385K109890CKMK15K109890C0000599364076085      BLN52P    PDUPI  520020230805
BJT01111141385K109890CKMK15K109890C000059812237002       BLN52P    PDUIT  520320230805
BJT01111142481K2002978KMK42K200297800006395000000000     BLN52P    PDUPI  520020230805
BJT01111142481K2002978KMK42K2002978000063825000000       BLN52P    PYSIT  520320230805
BJT01111143734K2002979KMK42K200297900006415000000000     BLN52P    PYSPI  520020230805
BJT01111143734K2002979KMK42K2002979000064025000000       BLN52P    PYSIT  520320230805
BJT01111143152K2003090KMK42K2003090000064625000000       BLN52P    PYSIT  520320230805
BJT01111143672K2005334KM01EK2005334000065927500000       BLN52P    PYSIT  520320230805
BJT01111142673K2005335KMK42K2005335000064825000000       BLN52P    PYSIT  520320230805
BJT01111143612K2005401KMK36K2005401000063122812480       BLN52P    PYSIT  520320230805
BJT01111042239K2005599KMK15K20055990000625104935239      BLN52P    PYSPI  520020230805
BJT01111042239K2005599KMK15K2005599000062477083333       BLN52P    PYSIT  520320230805
BJT01111144071K2005600KMK42K200560000006495000000        BLN52P    PYSIT  520320230805
BJT01111142557K209954CKMK15K209954C0000601272410888      BLN52P    PDUPI  520020230805
BJT01111142557K209954CKMK15K209954C000060088384020       BLN52P    PDUIT  520320230805
BJT01111143246K3001788KMK15K30017880000605101993817      BLN52P    PDUPI  520020230805
BJT01111143246K3001788KMK15K3001788000060466619765       BLN52P    PDUIT  520320230805
BJT01111142638K3002311KMK15K30023110000627207573580      BLN52P    PDUPI  520020230805
BJT01111142638K3002311KMK15K30023110000626181534687      BLN52P    PDUIT  520320230805
BJT01111143597K3002715KMK15K3002715050701P104389727      ELNB45P2  PDYPI      20230805
BJT01111143139K3002975KMK42K300297500006435000000000     BLN52P    PYSPI  520020230805
BJT01111143139K3002975KMK42K3002975000064225000000       BLN52P    PYSIT  520320230805
BJT01111141111K3003977KMK15K3003977061301P56803113       ELNB45P2  PDYPI      20230805
BJT01111141111K3003977KMK15K3003977061301I33891716       ELNB45P2  PDYIT      20230805
BJT01111142834K3004028KMK42K300402800006479000000        BLN52P    PYSIT  520320230805
BJT01111143952K4004029KMK36K4004029000063038020830       BLN52P    PYSIT  520320230805
BJT01111143953K4004030KMK15K4004030000062157135203       BLN52P    PYSPI  520020230805
BJT01111143953K4004030KMK15K4004030000062018113835       BLN52P    PYSIT  520320230805
BJT01111140259K5002894KMK15K50028940000615101160754      BLN52P    PYSPI  520020230805
BJT01111140259K5002894KMK15K5002894000061443448828       BLN52P    PYSIT  520320230805
BJT01111141759K5002895KMK15K50028950000617236104843      BLN52P    PDUPI  520020230805
BJT01111141759K5002895KMK15K50028950000616246370278      BLN52P    PDUIT  520320230805
BJT01111143733K5002974KMK42K500297400006453500000000     BLN52P    PYSPI  520020230805
BJT01111143733K5002974KMK42K5002974000064417500000       BLN52P    PYSIT  520320230805
BJT01111143430K5005601KMK42K5005601000065025000000       BLN52P    PYSIT  520320230805
BJT01111143779K6003088KM01BK6003088000065741666667       BLN52P    PYSIT  520320230805
BJT01111143778K6003089KM01BK6003089000065821666667       BLN52P    PYSIT  520320230805
BJT01111143951K6004032KMK15K6004032000062367084994       BLN52P    PYSPI  520020230805
BJT01111143951K6004032KMK15K600403200006226449500        BLN52P    PYSIT  520320230805
BJT01111144131K6005402KMP02K60054020000652138888889      BLN52P    PYSPI  520020230805
BJT01111144131K6005402KMP02K6005402000065112500000       BLN52P    PYSIT  520320230805
BJT01111144189K6005493KM01AK6005493000065591666667       BLN52P    PYSIT  520320230805
BJT01111143918K6005595KPM04K6005595000066810000000       BLN52P    PYSIT  520320230805
BJT01111144268K6005598KPM04K6005598000066912500000       BLN52P    PYSIT  520320230805
BJT01212156647L0009501KMK15L00095010000699198390684      BLN52P    PDUPI  520020230805
BJT01212156647L0009501KMK15L0009501000069813560386       BLN52P    PDUIT  520320230805
BJT01212157432L0011602KMK15L00116020000683208693517      BLN52P    PYSPI  520020230805
BJT01212157432L0011602KMK15L0011602000068245785497       BLN52P    PYSIT  520320230805
BJT01212156951L0012014KMK42L0012014000070922500000       BLN52P    PYSIT  520320230805
BJT01212159119L0012270KMP02L0012270000071527777778       BLN52P    PYSPI  520020230805
BJT01212159119L0012270KMP02L001227000007142500000        BLN52P    PYSIT  520320230805
BJT01212159194L0012351KMP02L00123510000725138888889      BLN52P    PDUPI  520020230805
BJT01212159194L0012351KMP02L0012351000072412500000       BLN52P    PYSIT  520320230805
BJT01212159196L0012356KIP02L00123560000671138888889      BLN52P    PYSPI  520020230805
BJT01212159196L0012356KIP02L0012356000067012500000       BLN52P    PYSIT  520320230805
BJT01212157817L1011029KMK15L10110290000675113504536      BLN52P    PYSPI  520020230805
BJT01212157817L1011029KMK15L1011029000067420162050       BLN52P    PYSIT  520320230805
BJT01212155658L1011319KMK15L10113190000679476395477      BLN52P    PDUPI  520020230805
BJT01212155658L1011319KMK15L1011319000067832562550       BLN52P    PDUIT  520320230805
BJT01212045640L1012266KON11L1012266000073163373500       BLN52P    PDUPI  520020230805
BJT01212045640L1012266KON11L101226600007306168223        BLN52P    PYSIT  520320230805
BJT01212159114L1012271KMP02L10122710000717104166667      BLN52P    PYSPI  520020230805
BJT01212159114L1012271KMP02L101227100007166250000        BLN52P    PYSIT  520320230805
BJT01212156724L2011192KMK15L20111920000677150784027      BLN52P    PDUPI  520020230805
BJT01212156724L2011192KMK15L2011192000067640168239       BLN52P    PDUIT  520320230805
BJT01212158050L2011398KMK15L20113980000681124323592      BLN52P    PDUPI  520020230805
BJT01212158050L2011398KMK15L2011398000068040628498       BLN52P    PDUIT  520320230805
BJT01212159117L2012265KMK15L20122650000691130965044      BLN52P    PDUPI  520020230805
BJT01212159117L2012265KMK15L2012265000069088971076       BLN52P    PDUIT  520320230805
BJT01212157878L2012269KMK40L20122690000701833333333      BLN52P    PDUPI  520020230805
BJT01212157878L2012269KMK40L2012269000070025000000       BLN52P    PYSIT  520320230805
BJT01212155844L2012352KMK15L20123520000693107436459      BLN52P    PDUPI  520020230805
BJT01212155844L2012352KMK15L2012352000069275843641       BLN52P    PYSIT  520320230805
BJT01212158005L3010975KON08L3010975000072943728586       BLN52P    PDUPI  520020230805
BJT01212158005L3010975KON08L3010975000072817132139       BLN52P    PDUIT  520320230805
BJT01212158692L3011567KMK15L3011567000068566826326       BLN52P    PDUPI  520020230805
BJT01212158692L3011567KMK15L3011567000068432144928       BLN52P    PDUIT  520320230805
BJT01212158691L3011656KMK15L30116560000697111377210      BLN52P    PDUPI  520020230805
BJT01212158691L3011656KMK15L3011656000069653574880       BLN52P    PDUIT  520320230805
BJT01212159118L3012267KMP02L30122670000719125000000      BLN52P    PYSPI  520020230805
BJT01212159118L3012267KMP02L301226700007183750000        BLN52P    PYSIT  520320230805
BJT01212159195L3012355KMK40L3012355000070212500000       BLN52P    PYSIT  520320230805
BJT01212155593L4009846KMK15L40098460000673212367370      BLN52P    PDUPI  520020230805
BJT01212155593L4009846KMK15L4009846000067292074804       BLN52P    PDUIT  520320230805
BJT01212157704L4011570KMK41L401157000007042500000000     BLN52P    PDUPI  520020230805
BJT01212157704L4011570KMK41L4011570000070325000000       BLN52P    PYSIT  520320230805
BJT01212157697L4011716KMK41L4011716000070525000000       BLN52P    PYSIT  520320230805
BJT01212158951L4012015KMK41L401201500007065000000        BLN52P    PYSIT  520320230805
BJT01212156283L4012016KMK15L4012016000068975985463       BLN52P    PYSPI  520020230805
BJT01212156283L4012016KMK15L4012016000068824831772       BLN52P    PYSIT  520320230805
BJT01212159116L4012263KMP02L40122630000711104166667      BLN52P    PDUPI  520020230805
BJT01212159116L4012263KMP02L401226300007106250000        BLN52P    PYSIT  520320230805
BJT01212159115L4012264KMP02L4012264000071355555556       BLN52P    PYSPI  520020230805
BJT01212159115L4012264KMP02L401226400007125000000        BLN52P    PYSIT  520320230805
BJT01212159192L4012350KMP02L40123500000723104166667      BLN52P    PDUPI  520020230805
BJT01212159192L4012350KMP02L401235000007226250000        BLN52P    PYSIT  520320230805
BJT01212159193L4012353KPM03L4012353000073212500000       BLN52P    PYSIT  520320230805
BJT01212158406L5011272KMK15L5011272000069586881972       BLN52P    PDUPI  520020230805
BJT01212158406L5011272KMK15L5011272000069423086088       BLN52P    PDUIT  520320230805
BJT01212157757L5011717KMK15L5011717000068770886873       BLN52P    PYSPI  520020230805
BJT01212157757L5011717KMK15L5011717000068645242292       BLN52P    PYSIT  520320230805
BJT01212157962L5011808KMK42L5011808000070717500000       BLN52P    PYSIT  520320230805
BJT01212157909L5011809KMK42L5011809000070825000000       BLN52P    PYSIT  520320230805
BJT01212159113L5012268KMP02L50122680000721138888889      BLN52P    PDUPI  520020230805
BJT01212159113L5012268KMP02L5012268000072012500000       BLN52P    PYSIT  520320230805
BJT01212159191L5012354KMP02L50123540000727111111111      BLN52P    PYSPI  520020230805
BJT01212159191L5012354KMP02L5012354000072610000000       BLN52P    PYSIT  520320230805
BJT01313071035M0007667KM36AM0007667000081021111090       BLN52P    PDUIT  520320230805
BJT01313077471M0007839KMK40M0007839000079425000000       BLN52P    PDUIT  520320230805
BJT01313077031M0007840KM36AM0007840000080948000000       BLN52P    PYSIT  520320230805
BJT01313053447M0007860KMK15M0007860000077861876228       BLN52P    PYSPI  520020230805
BJT01313053447M0007860KMK15M0007860000077729763822       BLN52P    PYSIT  520320230805
BJT01313076936M0007972KMK15M00079720000780115333985      BLN52P    PDUPI  520020230805
BJT01313076936M0007972KMK15M0007972000077966055672       BLN52P    PYSIT  520320230805
BJT01313077129M0008067KPM03M0008067000081110000000       BLN52P    PYSIT  520320230805
BJT01313076022M0008119KMP02M00081190000806111111111      BLN52P    PYSPI  520020230805
BJT01313076022M0008119KMP02M000811900008055000000        BLN52P    PYSIT  520320230805
BJT01313048833M0107523KMK15M01075230000760114936015      BLN52P    PYSPI  520020230805
BJT01313048833M0107523KMK15M0107523000075913360055       BLN52P    PYSIT  520320230805
BJT01313077908M0108041KMP02M01080410000798138888889      BLN52P    PYSPI  520020230805
BJT01313077908M0108041KMP02M0108041000079712500000       BLN52P    PYSIT  520320230805
BJT01313077906M0108042KMP02M01080420000800138888889      BLN52P    PYSPI  520020230805
BJT01313077906M0108042KMP02M0108042000079912500000       BLN52P    PYSIT  520320230805
BJT01313077907M0108043KMP02M0108043000080297222222       BLN52P    PYSPI  520020230805
BJT01313077907M0108043KMP02M010804300008018750000        BLN52P    PYSIT  520320230805
BJT01313071016M1003515KMK15M10035150000762151790922      BLN52P    PDUPI  520020230805
BJT01313071016M1003515KMK15M1003515000076131489178       BLN52P    PYSIT  520320230805
BJT01313076472M1003534KMK15M10035340000764144803287      BLN52P    PDUPI  520020230805
BJT01313076472M1003534KMK15M1003534000076338476813       BLN52P    PYSIT  520320230805
BJT01313076698M1003589KMK15M10035890000770175050212      BLN52P    PDUPI  520020230805
BJT01313076698M1003589KMK15M1003589000076926584257       BLN52P    PDUIT  520320230805
BJT01313048363M1003624KMK15M1003624000077424750491       BLN52P    PYSPI  520020230805
BJT01313048363M1003624KMK15M1003624000077311905529       BLN52P    PYSIT  520320230805
BJT01313070639M103228CKMK15M103228C0000754329544616      BLN52P    PDUPI  520020230805
BJT01313070639M103228CKMK15M103228C000075385805566       BLN52P    PDUIT  520320230805
BJT01313077192M1103545KMK15M1103545000076671007824       BLN52P    PDUPI  520020230805
BJT01313077192M1103545KMK15M110354500007654605102        BLN52P    PYSIT  520320230805
